:020000041000EA
:1000000000B5324B212058609868022188439860DF
:10001000D860186158612E4B002199600221596106
:100020000121F02299502B49196001219960352056
:1000300000F044F80222904214D00621196600F024
:1000400034F8196E01211966002018661A6600F04E
:100050002CF8196E196E196E052000F02FF8012189
:100060000842F9D1002199601B49196000215960AB
:100070001A491B48016001219960EB211966A021F2
:10008000196600F012F800219960164914480160C1
:100090000121996001BC002800D000471248134993
:1000A000086003C880F30888084703B5996A0420EC
:1000B0000142FBD001200142F8D103BD02B5186610
:1000C0001866FFF7F2FF186E186E02BD00000240BE
:1000D000000000180000070000035F00212200005C
:1000E000F4000018222000A00001001008ED00E03C
:1000F00000000000000000000000000074B24E7A12
:1001000000200420F7010010C3010010C5010010F9
:10011000C1010010C1010010C1010010C101001097
:10012000C1010010C1010010C1010010C701001081
:10013000C1010010C1010010C9010010CB01001065
:10014000CD010010CD010010CD010010CD01001037
:10015000CD010010CD010010CD010010CD01001027
:10016000CD010010CD010010CD010010CD01001017
:10017000CD010010CD010010CD010010CD01001007
:10018000CD010010CD010010CD010010CD010010F7
:10019000CD010010CD010010CD010010CD010010E7
:1001A000CD010010CD010010CD010010CD010010D7
:1001B000CD010010CD010010CD010010CD010010C7
:1001C00000BE00BE00BE00BE00BE00BEEFF3058054
:1001D000103800BEF2EB8871408000106080001083
:1001E0003402001090A31AE700201F49086006C8D7
:1001F00081F3088810471D48006800282FD10DA4FE
:100200000ECC002902D000F012F8F9E71849194A7B
:10021000002000E001C19142FCD1174988471749ED
:1002200088471749884700BEFDE701C901C29A42C5
:10023000FBD3704760800010C0000020600F0020DA
:10024000008F00100000042000000420008F001028
:10025000001004200010042000000000704709482E
:1002600004F032F90047000008ED00E0000000D083
:10027000600F0020E81C0020052A00100503001074
:10028000F92A00105756000006005250ABB36053D5
:10029000707B001006005250861C0302807B001009
:1002A000060052505422A29D8C7B00100500525033
:1002B000DE65F468008F0010F8B5C04610B5064C36
:1002C0002378002B07D1054B002B02D0044800E017
:1002D00000BF0123237010BD901200200000000019
:1002E000E0790010044B10B5002B03D003490448FB
:1002F00000E000BF10BDC0460000000094120020C6
:10030000E0790010F0B5DE4657464E464546E0B56A
:10031000D548BDB001F034FD05F08EF9192000F08C
:10032000E5FED024802324069B046362142000F0A1
:10033000DDFE80235B03A36200220121142000F074
:10034000C3FE04AB9C46772069226044002104F080
:1003500097FF1F22C5491AA807F0C4FA08A90A0086
:10036000C34B582611CB11C201220220C14B04AF4E
:100370001C681D686400154004402C431D6864001F
:1003800015402C431D68640015402C431D68640013
:1003900015402C431D68640015402C431D68640003
:1003A00015402C431D68640015402C434025BF199F
:1003B0007C551C681D686400154004402C431D6872
:1003C000640015402C431D68640015402C431D68D3
:1003D000640015402C431D68640015402C431D68C3
:1003E000640015402C431D68640015402C434125D2
:1003F00004AFBF197C551C681D686400154004409B
:100400002C431D68640015402C431D686400154092
:100410002C431D68640015402C431D686400154082
:100420002C431D68640015402C431D686400154072
:100430002C43422504AFBF197C551C681D6864001D
:10044000154004402C431D68640015402C431D6872
:10045000640015402C431D68640015402C431D6842
:10046000640015402C431D68640015402C431D6832
:10047000640015402C43432504AFBF197C551C680C
:100480001D686400154004402C431D68640015403D
:100490002C431D68640015402C431D686400154002
:1004A0002C431D68640015402C431D6864001540F2
:1004B0002C431D68640015402C43442504AFBF192C
:1004C0007C551C681D686400154004402C431D6861
:1004D000640015402C431D68640015402C431D68C2
:1004E000640015402C431D68640015402C431D68B2
:1004F000640015402C431D68640015402C434525BD
:1005000004AFBF197C551C681D6864001540044089
:100510002C431D68640015402C431D686400154081
:100520002C431D68640015402C431D686400154071
:100530002C431D68640015402C431D686400154061
:100540002C43462504AFBF197C551D681C686D00FF
:100550001440284020431C684000144020431C687D
:100560004000144020431C684000144020431C6895
:100570004000144020431C6840001B681440204386
:100580001A404000104347220023B85400223A4842
:10059000029203932CAE2AAB07900093073203001C
:1005A000300000F095F9354B354A9B46354B0592A6
:1005B0009A46354B354A9946354B06929846354A08
:1005C000354D0492584604F039FF1AA9504605F0FB
:1005D00027F8484605F024F82AAC21782800013491
:1005E00005F01EF8A642F8D1404605F019F834008F
:1005F0002EAF21782800013405F012F8A742F8D177
:10060000D02212065368DB02DC0F002B0DDA8023A8
:100610009B040598936104F011FF049804F00EFF09
:10062000FA20400001F0ACFBCCE780239B0453612F
:10063000002140220AA804F023FE00220023029297
:1006400003932AAB00930732079B31000AA800F0FE
:100650003FF904AB06980AA9DC7704F0E1FFFA2021
:10066000800001F08DFBD8E7B80B0000E0790010A6
:10067000A87A00101C000640407C0010EC790010A5
:10068000447A0010107A0010207A0010687A001066
:10069000347A00107C7A00102C7A0010F0B557469E
:1006A0004E464546DE46E0B50D000700686991B04C
:1006B0000190A8690B680290E8699B4605904B6819
:1006C000A86A89681A0082466B6BE86A0391E96838
:1006D000804608912C692E6A696A286B0493AB6B7B
:1006E000ED6B0F9700950A2507950E35AC46013541
:1006F000A9465D46D34692464246089F069210227E
:100700002D196840D041861974400432D4412D1906
:10071000089568406546E8414D4636187440EC41FE
:10072000019D09962E000A941024049A56447240A2
:10073000E2415418290014256140E941B2468A4437
:1007400055466A4016006246D641A046B246D0449D
:10075000049545460C956940029D039CAA46544465
:100760004A460B96634026001024D141E3415A4685
:100770009C1865402A001425EA416546B618734066
:10078000EB419B46A3445C46059D62404C46AA460D
:100790000D931023E241009C57447C40DC41069BB2
:1007A0009846A04443465D402B001425EB41FF18BA
:1007B0000E977C406746FC41A04447467B404F462D
:1007C000FB411027089DF6186D186C40FC41A344AE
:1007D0005F4679401427F94167466D186C40FC412B
:1007E000A246D34400945C4661404C46E141102748
:1007F000049C0191A1184840F8414446241804374C
:100800006240FA418A469244514648406146A046B9
:10081000C841804441464A4006914946CA41102495
:1008200002920B9A09997240E24189184B40FB41B0
:10083000F618724003966646F2418E18734019000E
:100840004F4604920A9AF94190460E9F0D9B4744E9
:100850007B40E3411400142205910C99C9184C40C7
:10086000D44162463F197B40D3414A46C9184C40A7
:10087000D441079A013A0792002A00D03FE7524636
:10088000BC460F9FDA467A60039AAB46BA6062466E
:10089000FA60019A069D7A61029AA846BA61059AA1
:1008A0005D46FA615246BA624246BB63FA62009BF9
:1008B000049A3D603C613E62796238637A63FB630F
:1008C00011B0F0BCBB46B246A946A046F0BDC0463A
:1008D000F0B557464E46DE464546E0B5BDB09C46AF
:1008E000489B0CAF9946499B039298463B00FA4AB5
:1008F0000290469D0C0043CA43C3126861461A60C9
:1009000010A8202204F0C2FC6A782B7812021A4345
:10091000AB78C2461B041343EA781CAE12061A4396
:1009200093461A926A792B7912021A43AB791B0407
:100930001343EA7912061A434B463B6343467B63F3
:10094000039B00929B091B92049300D1AFE1029B91
:100950001CAE1A0020331D00049B4B44019333004E
:100960001600984639004046FFF798FE4346DB4A9A
:100970001B6894466344002C00D1B2E2627821786F
:1009800012020A43A17809041143E27812060A43CD
:1009900053401A0A337072701A0C1B0EB270F37047
:1009A000CF4A434694466279217912020A43A179DB
:1009B0005B6809041143E279634412060A43534019
:1009C0001A0A337172711A0C1B0EB271F371C54A97
:1009D00043469446627A217A12020A43A17A9B68BE
:1009E00009041143E27A634412060A4353401A0A87
:1009F000337272721A0C1B0EB272F372BA4A434609
:100A00009446627B217B12020A43A17BDB680904C6
:100A10001143E27B634412060A4353401A0A3373BC
:100A200072731A0C1B0EF3734346B2731B693A6957
:100A3000217C9B18627C12020A43A17C09041143A9
:100A4000E27C12060A4353401A0A337472741A0C79
:100A50001B0EF3744346B2745B697A69217D9B185F
:100A6000627D12020A43A17D09041143E27D120650
:100A70000A4353401A0A337572751A0C1B0EF3752C
:100A80004346B2759B69BA69217E9B18627E120249
:100A90000A43A17E09041143E27E12060A43534031
:100AA0001A0A337672761A0C1B0EF3764346B27628
:100AB000DB69FA69217F9B18627F12020A43A17FDA
:100AC00009041143E27F12060A4353401A0A33779E
:100AD00072771A0C1B0EF3774346B2771B6A3A6A99
:100AE0009B182022A15C0132A25C12020A4322213F
:100AF000615C090411432322A25C12060A4353409D
:100B00001A0A2B706A701A0C1B0EEB704346AA70FF
:100B10005B6A7A6A9B182422A15C0132A25C1202F1
:100B20000A432621615C090411432722A25C1206B4
:100B30000A4353401A0A2B716A711A0C1B0EEB718F
:100B40004346AA719B6ABA6A9B182822A15C0132AB
:100B5000A25C12020A432A21615C090411432B2280
:100B6000A25C12060A4353401A0A2B726A721A0CCC
:100B70001B0EEB724346AA72DB6AFA6A9B182C22A0
:100B8000A15C0132A25C12020A432E21615C0904BD
:100B900011432F22A25C12060A4353401A0A2B73F8
:100BA0006A731A0C1B0EEB734346AA731B6B3A6BEA
:100BB0009B183022A15C0132A25C12020A4332214E
:100BC000615C090411433322A25C12060A435340BC
:100BD0001A0A2B746A741A0C1B0EEB744346AA741F
:100BE0005B6B7A6B9B183422A15C0132A25C12020F
:100BF0000A433621615C090411433722A25C1206C4
:100C00000A4353401A0A6A751A0CAA7538222B75C2
:100C10001B0EEB75A15C0132A25C434612020A4333
:100C20003A21615C9B6B090411433B22A25C5B444B
:100C300012060A4353401A0A6A761A0CAA76009AD8
:100C40002B7694463C221B0EEB76A15C0132A25C13
:100C5000434612020A433E21615CDB6B09041143E7
:100C60003F22A25C634412060A4353401A0A2B77C0
:100C70006A771A0C1B0EAA77EB77403401239C4647
:100C8000E1444B463B63002B00D023E1E244534652
:100C90007B63019B40364035002B00D062E6029A10
:100CA000049B94469B019C44634646460293039AE8
:100CB0003F2315002CA98C461D40134200D1E2E1D0
:100CC000002C00D1FAE139003000FFF7E7FC034ABD
:100CD0001C9B94460AE0C046B07A001065787061AB
:100CE0006E642033322D62797465206BD44A63447C
:100CF00094467168D34861448446B268F06862449F
:100D00000B92D14A0A9190463269804491467269A9
:100D10003869924681447869B2698244B8699446D8
:100D20000200F06962448446F86960440190306AC8
:100D30008446386A60440490706A8446786A010088
:100D4000B06A61448446B86A05910100F06A614462
:100D50008446F86A06910100306B61448446386B22
:100D600007910100706B61448446786B0891604480
:100D700009900099B06B8C460A9983442D910B9988
:100D800000922E9141462F91494630915146319122
:100D90000999329239915946019AF06B3392049A2B
:100DA00060443492059A3B903592069A681E3692BA
:100DB000079A2C933792089A3A913892032800D8D0
:100DC00044E1029A601C101A022800D83EE110008B
:100DD0002043800700D039E12168A8084B40136008
:100DE000012800D16CE163680A99594051600228DA
:100DF0004ED01100A3680B9A5A408A60032847D04E
:100E00004246E3685A4013000A00CB6004283FD0F2
:100E10004946236959401161052839D05146636913
:100E200059405161062833D0A36900995940916116
:100E300007282DD0E36901995940D161082827D0AE
:100E4000236A049959401162092821D0636A0599DF
:100E5000594051620A281BD0A36A069959409162F1
:100E60000B2815D0E36A07995940D1620C280FD09E
:100E7000236B0899594011630D2809D0636B0999B8
:100E8000594051630F2803D15946A36B59409163D0
:100E90003C23039A13409D4200D1EBE02CAA9446D8
:100EA0006146E25CC95C02984A40C2545A1C9542B1
:100EB00000D8E1E06046A15C805C023341400298CA
:100EC00081549D4200D8D7E06146E25CC95C4A404B
:100ED000C254D1E0019B40364035994500D041E5F0
:100EE000DDE61A0A337072701A0C1B0EB270F370C2
:100EF000534A434694465B6863441A0A33717271DD
:100F00001A0C1B0EB271F3714E4A434694469B680D
:100F100063441A0A337272721A0C1B0EB272F372A5
:100F2000494A43469446DB6863441A0A3373727332
:100F30001A0C1B0EF3734346B2731B693A699B1874
:100F40001A0A337472741A0C1B0EF3744346B2748B
:100F50005B697A699B181A0A337572751A0C1B0E35
:100F6000F3754346B2759B69BA699B181A0A3376C2
:100F700072761A0C1B0EF3764346B276DB69FA6979
:100F80009B181A0A337772771A0C1B0EF3774346B5
:100F9000B2771B6A3A6A9B181A0A2B706A701A0C8D
:100FA0001B0EEB704346AA705B6A7A6A9B181A0A9A
:100FB0002B716A711A0C1B0EEB714346AA719B6A66
:100FC000BA6A9B181A0A2B726A721A0C1B0EEB7201
:100FD0004346AA72DB6AFA6A9B181A0A2B736A7371
:100FE0001A0C1B0EEB7343461B6BAA734B441A0A75
:100FF0002B746A741A0C1B0EEB7443465B6BAA7459
:1010000053441A0A2B756A751A0C1B0EEB7543466E
:101010009B6BAA755B441A0A2B766A761A0C1B0E18
:10102000AA76EB76009A43469446DB6B63441A0A31
:101030002B776A771A0C1B0EAA77EB771EE6C04651
:101040006E642033322D62797465206B0CA98C4656
:101050007F20029A013C013A60440123B4462600F5
:101060001400F15CC25C5140E154190001338D421F
:10107000F7D166462CAB9C46634600223CA91A7009
:1010800001338B42FBD16B1E9D41189A199B28009E
:101090000021644680185941330000221A70013340
:1010A000A342FBD100233B700137B742FBD13DB0D7
:1010B000F0BCBB46B246A946A046F0BD014C02E6D4
:1010C0000423EBE6607C0010074B80009C466044E4
:1010D0000368C90092000A435A400C231A40802337
:1010E0005B0103431A60704704C001400123D02212
:1010F0008340120693629361094A4021944683001B
:1011000063441A68C0004A40803111408022520175
:1011100013431960034B9C460523604443607047AA
:1011200004C0014000400140024B18688007C00F16
:101130007047C04600C0064070B5EFF3108C72B621
:101140000D4D2B68002BFCD0BFF35F8F0724CB081D
:10115000C618C05C01230C40A3401C00044003429D
:1011600007D118433070BFF35F8F2C608CF3108869
:1011700070BD100001F0C4FC2C0100D0F8B547464A
:10118000CE46884680B5EFF3108C72B6214D2C68A0
:10119000002CFCD0BFF35F8F9A422CD8D4080727CD
:1011A000055D061901241740BC402C421FD00721C1
:1011B0000127894609E0D408055D06194C46390027
:1011C0001440A1400C00294211D001329342F2D2C6
:1011D00001204042BFF35F8F00220E4B1A608CF358
:1011E000108800280FDBC0BCB946B046F8BD2543C7
:1011F00010003570EEE7BFF35F8F00232B608CF398
:101200001088012040424346002BECD0089801F0A2
:1012100077FCC0462C0100D00021044B044ABFF3E8
:101220005F8F02C39342FAD17047C046000100D0DD
:10123000800100D0044A1078431CDBB2172B00D980
:10124000102313707047C046600E002010B5064B87
:10125000064C82B00100009318221F232000FFF7E4
:101260008DFF02B010BDC046C47A001008180020DF
:1012700001238340002904D0034A1360034A13600A
:101280007047034A1360FBE780E200E000E100E002
:1012900080E100E001238340014A13607047C046AB
:1012A00000E200E0084B10309B688000C358002B20
:1012B00007D0064A00209B1A2F229A424041C0B212
:1012C00070470020FCE7C04600ED00E0640E0020FF
:1012D000024B10309B688000C058704700ED00E062
:1012E00070B50D00EFF3108672B60F4A1368002B2D
:1012F000FCD0BFF35F8F0D4B10309B6884001B59EF
:101300000B4A934203D09D4201D001F011FC074BE0
:101310009B681D51BFF35F8FBFF35F8F0022024BAD
:101320001A6086F3108870BD240100D000ED00E043
:10133000CD010010F0B557464E46DE464546E0B5B5
:1013400085B0060000911700EFF3108B72B66A4A61
:101350001368002BFCD0BFF35F8F0025674B5D57F0
:101360009A46002D00DAA9E06B00654C01935B19E9
:101370009B009846A146C1444B4652469B79103685
:101380001370604BB6009B6899590B1B2F2B33D9F8
:101390005D4B994200D0ACE0019B42469C465B4BC2
:1013A0006544AD0063535A4B0232A218043B9B1AAA
:1013B0001B05584A5B0D651913436B80564B012181
:1013C000AB80FF23AB71009BEF71AB604B460B43CF
:1013D00019004C4B9B689951BFF35F8FBFF35F8F30
:1013E0000022454B1A608BF3108805B0F0BCBB4659
:1013F000B246A946A046F0BD01200A008243D37937
:101400008C46BB4231D84546130044491B1B5B4107
:101410005943090D3D4B63533D4B02356519043B60
:101420005B1B1B053B4D5B0D2B43AA464D466B805A
:101430000425AC465546E044131F44441B1B1B05C2
:101440005B0D1D434B46997100999D8099604946FB
:10145000DF71334B01431360BBE75800C0188000B5
:101460002018C179B9422FD902000623D356002B88
:10147000F3DA02932B4B61460393131D9A46042320
:101480005B429C46E14450464B461B1A1B055B0DD4
:101490009C46204B95719846634640460343938093
:1014A000019B5A199200039BA418A380029B1C4A1B
:1014B000A371009B2260E771A3608AE701F038FB0B
:1014C000002553465D574FE7908802934005131D52
:1014D0009A46031561469C464046D4446346043010
:1014E0002018181AE0230005400D1B021843039032
:1014F000C5E701F01DFB4FE7240100D0E11C0020EF
:10150000640E002000ED00E0CD01001000A1FFFFFF
:10151000940E002000E0FFFF01BDFFFFAAAA00001B
:101520000148804701BD0000F0B5DE4657464E46F3
:101530004546E0B50C0083B0EFF3108872B6624AFE
:101540001368002BFCD0BFF35F8F604B9A680300D9
:1015500010339F00D5595E4A944695423DD0A5422E
:101560004ED05C4EAA1B2F2A37D801221100814091
:1015700089464846584909680840019048465749F5
:101580000860BFF35F8FEFF305818A46002939D0E9
:101590008B4201D001F0CCFA0123280098430623A6
:1015A0008168C3569B461A008C420AD187E05300DB
:1015B0009B189B00F3189968A14234D006221800AA
:1015C0009A56002AF3DA8C4257D0019B002B26D082
:1015D0004A46434B1A60404B1A603C4B9B68DD51B6
:1015E000BFF35F8FBFF35F8F0022374B1A6088F322
:1015F000108803B0F0BCBB46B246A946A046F0BD79
:101600001500EAE728009043062281688256934637
:101610008C42D6D10300002A0ADA654635E04A46F4
:101620002E4B1A60D9E706229A569346002A25DBEC
:101630005A465946520051188900701884689C60B7
:10164000C479DC71062404579C71002C27DB808848
:10165000400500150818F11A0918E0200905490D80
:1016600000020143998013001E4A5B4411789B00DD
:10167000F31899715B461370A7E703005246002ADE
:1016800010D1FF328271184A828016490A789A7105
:10169000164A9B1B5B415A43120D0A7095E7144989
:1016A000E0E70300134A1449D21A083A5002400DE9
:1016B00001439980114952080A43DA8085E7002BDB
:1016C000EFDB0300B4E7C046240100D000ED00E0EA
:1016D000CD010010640E002000E100E080E100E098
:1016E00080E200E0E11C002001BDFFFFAAAA00008B
:1016F00001BD00009E0E002000F0FFFF00F8FFFF7C
:1017000070B5EFF3058101240443EFF3108C72B63A
:10171000214A1368002BFCD0BFF35F8F1F4B0500DD
:101720001F4AED1A6D416A43120D1E4D8900AE68C5
:1017300052B27658A6421CD00621595691421CD06E
:1017400012215956914222D01E215956914220D041
:101750002A2159560324914210D0134B19781A703C
:101760008171BFF35F8F00220B4B1A608CF31088DE
:1017700070BDAB680D4C5C50EFE7002461000919A7
:1017800089005B18FF21997109499980E5E70124D7
:10179000F4E70224F2E7C046240100D0640E0020E2
:1017A000AAAA000000ED00E0E11C0020CD0100101D
:1017B00001BDFFFF054B064A1360064A13605360E4
:1017C0009360D36013615361936170478080808020
:1017D00000E400E004E400E010B5084B084C82B0DF
:1017E00001000093002205232000FFF7C7FC00281A
:1017F00001DB1F23181A02B010BDC046E07A0010AA
:10180000E61C0020024B9C46614489000160704741
:101810004000003410B50400FFF70CFD010020006B
:10182000FFF7F0FFFF232371BFF35F8F10BDC046AA
:1018300010B50400FFF7FEFC01002000FFF7E2FFF7
:10184000FF23A380BFF35F8F10BDC04610B5040017
:101850000120FFF7FBFC034BC3189B002360BFF381
:101860005F8F10BD40000034034B9C4661448900EB
:101870000160BFF35F8F70474000003483680B48FE
:1018800010B58446614462441201090159189B183D
:101890005C684A680120944201D802D00020C0B29E
:1018A00010BD1A680B689A42F9D8F7E7FFFFFF0FDF
:1018B0000A4B1968EFF3108072B60A68002AFCD050
:1018C000BFF35F8F1B68BFF35F8F00221A6080F346
:1018D000108840BF002000217047C046B01C002087
:1018E000F8B5574645464E46DE46E0B598460CAB41
:1018F0001C780DAB1B78070091469A460568002CB2
:1019000059D1AC7B002C3BD0660029683619033EC8
:1019100089194B78AB73002B00D1EB7300238B70CC
:101920004B700B702D4BE218BB6812019B184A4696
:101930001A6042465A600A9A9A600B9ADA6000234B
:101940008B704B700B706B7B9B46002B26D022005C
:101950006B685946A86898475B465B005B442A68F9
:10196000033B002812D058469619B070D118D35CAA
:10197000002B00D073705B460C706B735C450ED00F
:10198000F0BCBB46B246A946A046F8BDD3189C7031
:101990009119925D002A1CD15B460B706C734A460C
:1019A0004346387D00F096FB051E0AD10E9B002BA6
:1019B000E6D01D70E4E7660029683619033E8919F0
:1019C000B0E75346002BF1D12100386800F0BEFD8E
:1019D000ECE75A705B460B706C73E0E7FFFFFF0F9C
:1019E000674B8200F0B5D45800235746DE464E467A
:1019F00045469A46E0B58BB0079000F00BFB02001D
:101A00000B006068EFF3108B72B65E460168002928
:101A1000FCD0B346BFF35F8F21684F7B8C46002F0D
:101A20000CD16368BFF35F8F1F6086F310880BB023
:101A3000F0BCBB46B246A946A046F0BDA5685149D8
:101A4000A94679180901894449460868496805008A
:101A50000E00AD1A9E41002E0EDD02000B0007980D
:101A600000F038FB6368BFF35F8F52461A608BF358
:101A700010880028C1D1DAE7002E01D1002DECD169
:101A80000021604600F0CEFC4B4602001868596801
:101A90009B680890099198464B46DB6806937B1E2D
:101AA00099464946E368585C636800020243226134
:101AB000BFF35F8F52461A608BF310884346002BAA
:101AC000B5D006993843C047626805000E00EFF3B1
:101AD000108B72B61368002BFCD0BFF35F8F002E03
:101AE00024DB2B00334302D02369002B39D1236838
:101AF000D97B002905D01A68480041185218033ACA
:101B000057709A7B002A00D19F73DF734B4649467A
:101B1000E268D35C01335354534623616368BFF3D7
:101B20005F8F52461A608BF3108866E72369002B9B
:101B3000DDD0089A099B8021521BB34109068B42D4
:101B400002D30122104B5242002104910131039132
:101B5000069920000191414602970091FFF7C0FECF
:101B6000DAE700F057FA2A00330012184B418021BF
:101B700009068B42E8D30122034B5242E4E7C046F8
:101B8000941C0020FFFFFF0FFFFFFF7F10B5144CD8
:101B90006368002B04D00A211248FFF733FE10BD02
:101BA0002300114A1021206800F046FB032000F0BA
:101BB00025FA032000F0F6FA03200C4900F044FA5D
:101BC000FFF738FB0A4B9C4603232375D0231B06E3
:101BD0001B6860446375074B80006060DC60DAE777
:101BE000AC0E0020B01C00207D180010E119001080
:101BF00040000034941C002000487047AC0E0020C8
:101C0000F0B557464E464546DE46E0B585B00193F1
:101C100010AB1B780600039300239A469846009267
:101C20007268EFF3108B72B61368002BFCD0BFF311
:101C30005F8F3568AC7B002C00D16EE067002B68AD
:101C40003F19033FDB195A78AA73002A00D1EA73BF
:101C5000484AA118B2680901521800980199106009
:101C600051600E9991600F99D16042469A705A70F6
:101C70001A706B7B9946002B00D16BE022006B68D9
:101C80004946A86898474B465B004B442A68033B8B
:101C9000002856D04846D719B870D118D35C002B0D
:101CA00000D07B704B460C706B734C4553D0F3687F
:101CB0001B19013B18787368BFF35F8F42461A60A7
:101CC0008BF310885346002B08D10002204305B047
:101CD000F0BCBB46B246A946A046F0BD039B002B14
:101CE00046D00E9B00200F99984703000B433FD02E
:101CF00004000D1E1ADA009A019B121BAB410092E0
:101D0000019380221206934204D301231A4C5B42B2
:101D100000930194039B9A4682E77368BFF35F8F39
:101D20001C608BF3108801204042D0E700F072F96C
:101D30008022001969411206009001919142E9D375
:101D4000E3E7D3189C70D119D25D002A00D05A70F5
:101D50004B460B706C73307D009A019B00F0BAF912
:101D600082460028A3D02100306800F0EFFB9EE7F8
:101D70000020ACE7FFFFFF0FFFFFFF7F407D7047B4
:101D8000F0B5C64600B584B0040000F043F9FA226D
:101D900006000F00002320000021920003F006FA45
:101DA0008023801979411B0604000D00994202D35B
:101DB00001242B4D644206267642F71736196F41EF
:101DC000AF4214D811D000F025F932003B00121AAE
:101DD0008B41002B15DC002B3ED02000290000F0A9
:101DE00023F904B080BCB846F0BDA642EBD900266A
:101DF000002700F00FF932003B00121A8B41002B34
:101E0000E9DD002302930193164B3200009316483C
:101E10003B00FFF7F5FE0028DFDB00233900984682
:101E2000124A1348536A994204D8976ABE42D4D9D9
:101E30009942D2D10768EFF3108C72B63B68002B41
:101E4000FCD0BFF35F8F0368BFF35F8F47461F600F
:101E50008CF3108820BFE5E7002ABED0D1E7C0464A
:101E6000FFFFFF7FB1180010AC0E002000400540BE
:101E7000B01C0020F0B5EFF30583CE46474680B591
:101E800005000C0085B0002B12D02A4A0020536AAE
:101E9000A34203D3926A0130AA4204D305B0C0BC66
:101EA000B946B046F0BD1B1B5A1E9341D8B2F5E7A8
:101EB000214E02930193214B0200009330000B004E
:101EC000FFF79EFE031EE0DD20BF7168EFF3108771
:101ED00072B60A68002AFCD0BFF35F8FDAB294466C
:101EE000FF2230681A40417B61450FD00168894666
:101EF0005100884649469044414403398978002975
:101F000004D13269934209D1316107E0F1681B0ABB
:101F10008A18013A1278DBB29A4207D07368BFF38D
:101F20005F8F00221A6087F31088AEE7614600F0E9
:101F30000DFBF3E700400540AC0E0020B118001087
:101F4000F0B5EFF30582D6464F4646461000C0B5C1
:101F50001038EFF3108872B6214C2368002BFCD0A8
:101F6000BFF35F8F0123190081401E4D1F0069637D
:101F7000AA461D4D29601D4D2E78AC463500C54042
:101F80002F402B4215D053465F6A194B8500EB5802
:101F90009F4218D36246174B8E43EB581670BFF31F
:101FA0005F8F0022226088F31088002B06D09847AC
:101FB00004E0BFF35F8F276088F31088E0BCBA4667
:101FC000B146A846F0BD0C4B92009C466244136893
:101FD0001360BFF35F8F0023236088F31088EDE761
:101FE000280100D0004005403C700540E51C002061
:101FF000BC1C0020F0160020D03F054010B5034B5C
:1020000001001800024AFFF797F810BDE01C0020FD
:10201000FC7A0010034B596A0A00986A596A8A428E
:10202000FAD1704700400540064A536A9942FCD8ED
:1020300007D1044B02E05A6A914202D19A6A824265
:10204000F9D370470040054070B504000D00EFF370
:10205000108672B61A4A1368002BFCD0BFF35F8F4C
:10206000002D1BD02000FFF733F9164981420AD01A
:102070002000FFF735F901212000FFF7F9F80123CF
:10208000A340114A1360114BA400E550BFF35F8FCA
:1020900000220B4B1A6086F3108870BD0121A1400D
:1020A0000A4BA200D5500A4B20001A788A430549F2
:1020B0001A70FFF739FA00212000FFF7D9F8E5E799
:1020C000280100D0411F001038600540F0160020A4
:1020D000E51C0020F0B54F46D6464646C0B5070081
:1020E0002B4C616A0D00A66A616AA942FAD18B4243
:1020F00008D805D00120E0BCBA46B146A846F0BDDC
:10210000B242F7D9EFF3108A72B62248016800296B
:10211000FCD0BFF35F8F0125BD401F491C4C884692
:10212000097889462943C9B28C4641466046087001
:10213000391D890065630A511849B8004350216A66
:102140000020294219D0616A0800A66A616A8142AA
:10215000FAD18B4219D801D1B24216D8CC450BD056
:102160000B4B1F221D625D6301233A4093400C4AD2
:10217000136043464A461A700120BFF35F8F002266
:10218000044B1A608AF31088B5E70020F5E7C046D3
:1021900000400540280100D0E51C0020BC1C0020A8
:1021A00080E200E0EFF3108C72B60A490B68002B56
:1021B000FCD0BFF35F8F01238340074A07481362B7
:1021C00002789A430270BFF35F8F00230B608CF399
:1021D00010887047280100D000400540E51C002011
:1021E00070B506000D00140000291DD0002A12D081
:1021F00073688068984762006B0012195B19316838
:10220000033A033B002808D08A189570C818CB5CA5
:10221000002B0BD10470280070BDCB189C7088185F
:102220008A5C002A05D105702000F5E75370047020
:10223000F1E75A700570F7E710B583600023CCB260
:1022400043730133426004738373C4730068421C98
:10225000012C05D90133DBB2137003329C42F9D152
:10226000FF230B405A00D318C018002303384370D3
:1022700010BDC04670B505000C1E07D06300016894
:102280001B19033BCB185A78002A01D1200070BDDE
:10229000500080180338091800204E78487021003B
:1022A00058702800FFF79CFF310004002800FFF75A
:1022B000E1FF0600002C20D00028E7D032002100EA
:1022C0006B68A86898477200630092191B19296807
:1022D000033A033B002808D08A189470C818CB5CD6
:1022E000002B00D053700670D0E7CB189E70881872
:1022F0008A5C002A00D05A7004703400C6E7C046D9
:10230000F8B557464E464546DE464C00E0B56418E3
:1023100017000268033C0500105D13190E009C466F
:10232000002856D0430098461B18033BD318597811
:102330008A4600290FD1002F0AD0EC7B002C32D125
:10234000AB7B002B43D0EE73434619180339531867
:1023500000229A7032E049005144033952185178F2
:102360008846002151708946597052460100280064
:10237000FFF736FF43468246002B07D05B002968F3
:102380004344033BCB185A78002A30D14246514689
:102390002800FFF725FFA4462A689444002F0BD09D
:1023A000EC7B002C04D063001B19D318033B5E7038
:1023B000AB7B002B0BD0EE73002815D100236246B7
:1023C0005370F0BCBB46B246A946A046F8BDAE73FA
:1023D000F1E7002FF2D0EC7BAB7B002CE3D1002B9C
:1023E0001ED1A973E973E9E743009846ACE75000B2
:1023F0008018033809184878834648464870587052
:1024000041462800FFF7ECFE594680462800FFF7BA
:1024100031FF414602002800FFF7E2FE8046B5E7A3
:10242000E973CBE7F8B557464E464546DE46E0B57C
:10243000467B02687500AD19033D0F00515D5319CD
:1024400004009C46002958D04B0098465B18033B7B
:10245000D3185878824600280FD1002F0AD0E57B88
:10246000002D32D1A37B002B45D0E673434658188C
:102470000338131800229A7032E0400050440338A9
:10248000121850788046002050708146587052468D
:102490002000FFF7A5FE43468246002B07D05B00D5
:1024A00021684344033BCB185A78002A33D1424673
:1024B00051462000FFF794FEAC4622680100944488
:1024C000002F0BD0E57B002D04D06B005B19D318D7
:1024D000033B5E70A37B002B0DD0E673002917D160
:1024E00000236246300053706173F0BCBB46B246B5
:1024F000A946A046F8BDA673EFE7002FF0D0C57B34
:10250000837B002DE1D1002B1ED18673C673E7E7D4
:102510004B009846AAE750008018033809184878FD
:10252000834648464870587041462000FFF758FEE1
:10253000594680462000FFF79DFE414602002000DC
:10254000FFF74EFE8046B2E7C673C9E770B50500D7
:1025500000292CD0437B8B422ED04C00006864189D
:10256000033C0419A278002A21D053009B18033B96
:10257000C25CC6188A4202D11BE0002A08D0530070
:102580009B18033BC3185A788A42F6D162785A7076
:10259000002301222800A3706370FFF7B1FE697B5E
:1025A00002002800FFF71CFE6873012000E00020F5
:1025B00070BD63783370EBE701221900FFF7A0FECE
:1025C000F2E7C04610B50C2082B000F0B1F9FEF77A
:1025D000ABFD002810D08B4B8B488B498B4A186081
:1025E00059609860D960186159619861D961186221
:1025F00059625A6202B010BD854CA06700F0EEF936
:102600000122844B1A60636C012BFCD10322824BA4
:102610001A607F4A936B012BFCD1013301217F4A61
:102620007F480093043300F031F905237D4A00937D
:1026300001217D4800F02AF97C4B5A68FF2A02D814
:10264000802252005A608022734B6E4C12011A6035
:102650002169002907D0606901F090FF0130430033
:102660001B18033BFDD2E022704B714819680A40E9
:10267000026002221968514001320A4004210260BE
:102680009A681142FCD080216A4A090111608022B7
:1026900052005A60684B2361684B5968FF2900D883
:1026A0005A60032201215B4B1A60644A9368194205
:1026B000FCD0E023106803406148036012680323E4
:1026C0004A40022113405D4A036093681942FCD0DE
:1026D00080215C4B0901196080215B4B49005160EE
:1026E00063615A4B5A68FF2A00D859608022584BC0
:1026F00012011A60E169002907D0606901F03EFF0C
:10270000013043001B18033BFDD2E0234F4A116800
:102710000B4050490B6080214F4B0901196080210B
:10272000394B49005160E3614C4B5A68FF2A00D88D
:10273000596080224A4B12011A60216A002907D091
:10274000606901F01BFF013043001B18033BFDD201
:10275000E023424A11680B4042490B608021424B02
:102760000901196080235B0053608022264BD2024E
:1027700023623E4B5968914200D25A6080223C4B02
:1027800012011A60616A002907D0606901F0F6FE43
:10279000013043001B18033BFDD2E023334A11688C
:1027A0000B4034490B608021334B090119608023B1
:1027B000DB025360154B6362304B5A68FF2A02D824
:1027C000802252005A6080222D4B12011A60A169AA
:1027D000002907D0606901F0D1FE013043001B18C9
:1027E000033BFDD2E023254A11680B4025490B60CD
:1027F0008021254B0901196080235B005360124B37
:10280000A361F7E6600F0020006CDC021BB700003C
:10281000008000403CB0004030B00040002F6859BC
:1028200000800240008C864700C00240308000409B
:102830003090004030A00040001BB7003C800040BA
:102840003C9000403CA00040405973075480004039
:1028500054B000405490004054A0004060800040BC
:1028600060B000406090004060A000406C8000407C
:102870006CB000406C9000406CA00040488000406C
:1028800048B000404890004048A00040F8B504001F
:1028900022481E0017000D0001F070FE01003800F4
:1028A00001F06CFE069B36041B031E432368002BBD
:1028B00022DB1B4B1B49E3185A1E934180229201D5
:1028C00094465B421B0B184A1B0363441360174A70
:1028D00013601F008A689743FBD1C022231D920119
:1028E0001A4321232560A06013602368002BFCDAC3
:1028F0000823E6601360F8BD3F2322681340AB4213
:10290000D7D1A3681B051B0D8342D2D1EE22E36809
:10291000D2021340B342CCD1EDE7C046001BB70052
:102920000040FDBF00C0004000E0004000F000405B
:102930008023024A9B000343D36270470080054016
:1029400010B580241C4BE4051C6000281AD001231C
:102950001A4C18431A4BDC611A4C44401C625962F1
:1029600098628021144BC9051960174817490860FF
:10297000E021C9041960002A07D18022144B1206F5
:102980001A6010BD0E4BD861EBE753019B1A9B00F8
:102990009A18802312015B049A4209D213000D4950
:1029A0000B60074B5A608022094BD2051A60E8E79A
:1029B000094B1A00F3E7C04600B00540D3C007B08A
:1029C000008005402D3FF84FFCFF0100082001402A
:1029D00000A00540841C0020FFFFFF00AA23064A38
:1029E0001B0113602F230549D360054B1960536801
:1029F000002BFCDA7047C0460040024000B0FA00ED
:102A0000006002402C4B2D4A70B51A602C4A2D4BA9
:102A10002D491A6014008B689C43FBD12B4D2C4E22
:102A2000B54208D2013E761BB60808CD9847230070
:102A30000134B342F9D1FFF7C5FD264A214B1A6094
:102A4000214A9368DB43DB01DD09002BF9D14022E9
:102A5000214B224C224E9A675A671A67DA66B442B3
:102A600008D223682000002B20D00834FEF7E0FEB7
:102A7000B442F6D31B4C1C4EC022B168200002F0B9
:102A800005FCB460FEF7C8FBFEF794FEFFF77EF886
:102A9000164C174EB44208D2013E361BB60808CC7D
:102AA00098472B0001359E42F9D170BD0834FEF7DE
:102AB000B1FEB442D5D3DDE700E00040BFCDFBFE60
:102AC000FE7F3C0000F0004000C00040480F0020A6
:102AD000580F0020FFFFFF0100F00140400F0020D1
:102AE000480F00200000002000ED00E0580F0020FB
:102AF000600F002000BEFDE710B5FFF7FBFFC046EA
:102B00000FB400B5084883B002F098FC049B002B7A
:102B100007D005A91800019101F0B6FC034802F0A6
:102B20008DFC0120FFF7E6FF207B0010307B0010BA
:102B300010B50148FFF7E4FF347B00107047C04632
:102B4000F8B55746DE464E464546E0B599460A9BDF
:102B500007009A460D9B884693460B9C9B073BD1EA
:102B60000C9B9C423DD21E1B0B9415000C005E4436
:102B70002A004B46013521002020B847B542F7D145
:102B8000A0460B9C002C20D0454636195346321BDC
:102B9000013C185D29004B46B847002CF6D12B00AC
:102BA000350098460D9B9B070FD55B46EC1A0C9B96
:102BB000A3420AD9464698462A004B4631002020B7
:102BC0000134B84701354445F6D32800F0BCBB4674
:102BD000B246A946A046F8BD16001500002CD3D178
:102BE000E0E716001500002CCED1EEE7F0B54F4619
:102BF0004646D646C0B584B098460EAB1B78944680
:102C00009946129B0D9C109F119E9A0726D4002E68
:102C100051D1BC4222D201221A409246202C00D12E
:102C2000F8E00C9A551E302202E0202C00D176E00C
:102C300001342A55A742F8D85246002A00D10AE1A9
:102C4000B4420BD20C9A551E3022202C02D16DE0DA
:102C5000202C52D001342A55B442F9D1DA0610D4CE
:102C6000202C1DD103930C9B624600930296434691
:102C70000194FFF765FF04B0E0BCBA46B146A84630
:102C8000F0BD5A0541D4002C3BD10F9A102A00D137
:102C9000ABE0022A00D1BBE030220C9C2270012460
:102CA0004A46002A59D15A0700D496E02B220C9D9F
:102CB0002A550134D6E7012215001D40AA461A42C2
:102CC00050D04A46002A79D10C321A4276D1BC4201
:102CD000B6D2202CA5D1202E28D82024DA06C1D5A2
:102CE0005A0505D4202F00D1BCE0202E00D1ABE046
:102CF0000F9A102AB6D12024B4E7DA06B2D55A05C5
:102D000045D4A7425CD0B4425AD00F9A102A42D080
:102D1000022A4AD0202CA5D02200013459E0524684
:102D2000002A00D185E0202E00D882E02024DA0697
:102D300098D55A05DCD4202F00D193E0202ED7D18E
:102D40000F9A102A00D1A1E0022A00D19AE0302285
:102D50000C9CE2772026340084E72D220C9D2A5516
:102D600001347FE7BC4200D378E7202C00D058E73D
:102D7000DA06C0D55A05BED40F9A202F00D189E0BB
:102D8000202EB8D1102A00D180E00F9ADCE70F9AEC
:102D9000102A00D066E79A0630D5202CABD05825F3
:102DA0000C9A121915700134B4E7202C00D159E7A0
:102DB0002200013462250C9FBD54ABE7013E86E73B
:102DC000621E012C00D160E70F9D102D27D0022D2F
:102DD000F0D030250C9FBD5442E71A0700D441E7DC
:102DE00020220C9D2A5501343CE79A060ED4782205
:102DF0000C9C227030226270022451E7202C00D1FA
:102E000079E778220C9D2A55013483E75822EFE7B1
:102E10006222EDE7002A00D05FE7A9E71F220C9F9E
:102E2000A51EBA4655449F0612D55822013C2A7069
:102E300072E7DA0600D415E75A0500D558E7202FC7
:102E400019D0202E00D060E720261F223400BBE7D7
:102E500078272F70BDE7DA0600D401E75A0500D4C1
:102E60004FE752E70F9A102AD8D0022A06D0302214
:102E70000C9DEA77F6E620241F22A5E70C9D603220
:102E8000EA77EFE60C9C6032E27763E720261F22A8
:102E90003400C4E7102A06D0022A07D030220C9C46
:102EA000E2773C00DEE63C001F22B8E70C9C603273
:102EB000E2773C00D6E6C04610B5002800D110BD30
:102EC00002F070FAFBE7C0460B0010B5002802D0F4
:102ED00049681B68984710BDF0B557464E464546B1
:102EE000DE46E0B59BB0249E259F81468A469846E3
:102EF0000A923B0032003000390001F000FE002849
:102F000000D0C0E00122300039007D4B524201F078
:102F1000F1FD002800D0B6E0012230003900794BE5
:102F2000524201F0D9FD002800D0ACE0002200237D
:102F30003000390001F0D0FD002800D01BE20896D7
:102F40000997089809998023289ADB001A400F9264
:102F50008022289C1201144022000B94289C8B464E
:102F60000C901C4200D0A5E00B00034300D0CDE044
:102F7000002A00D020E222000633269302231A40C2
:102F80000C92289A134200D023E2279B042B00D2F4
:102F90002FE2043B0B9300239B4604330E93002245
:102FA00000233000390001F097FD002800D0AFE188
:102FB000554B289A134004930B9B0393269B029333
:102FC000089B099C00930194514643460A9A48463F
:102FD00000F064FA02002020289B0025034059429B
:102FE0004B415B421840531C0893514643464530C1
:102FF000C8475A46D317D418D70F012252429446D5
:103000005C400E9B63449B4601E0202D13D00AAA2E
:1030100094461F23200063440A2101355E1901F004
:10302000ADFA3031317020000A2101F0A7FA2600F4
:103030000400092EE9D8052306935B460593002377
:1030400004930A33039312AB009351464346484618
:10305000089A02970195FFF7C9FD0C9B0400002B0D
:1030600020D00A9BC51A279BAB421BD94E46574618
:103070002200434639002020B047279B0135013408
:10308000AB42F5D80EE0289B009601970493279B4E
:103090000393269B02934346514648460A9A00F002
:1030A000FDF9040020001BB0F0BCBB46B246A946A7
:1030B000A046F0BD01432BD10B9B2200002B00D179
:1030C0005CE700239B46269B00245B4500DDA6E1D0
:1030D000002200233000390001F0FEFC002800D05F
:1030E00051E1289B084A02941A408023DB001343D5
:1030F0000493279B0393089B099C00930194CAE7C0
:10310000FFFFEF7FFFFFEFFFFFF7FFFF0623269391
:103110005B465800C94B400D9C46604401F002FDDF
:10312000C74AC84B01F095FCC74AC84B01F06AFC7E
:103130005B461B031A0BC64B040013430D000C988F
:1031400019000022C34B01F054FCC34AC34B01F0E9
:1031500080FC02000B002000290001F053FC01F06C
:10316000F9FC834601F0DEFCBD4ABE4B04000D00B5
:1031700001F06FFC0022BC4B01F044FC01F0EAFCC2
:10318000BA4ABB4B29000E90200001F062FC0400FB
:103190000E980D0001F0C6FCB64AB74B01F059FC81
:1031A00002000B002000290001F023FC04000D00A8
:1031B00002000B000C940D9501F04BFC04000D0077
:1031C0000C980D9902000B0001F01CFC00221090DD
:1031D0001191AA4B2000290001F01DFC0022A84BF0
:1031E00001F010FC02000B002000290001F013FC8C
:1031F0000022A44B01F006FC02000B002000290075
:1032000001F009FC0C9A0D9B0D0080210400C905FA
:10321000002001F0EEFB02000B002000290001F06D
:10322000F1FB02000B001098119901F0F4FB002251
:10323000874B01F0E7FB944B0E9C9C4664442305AE
:10324000002201F006FC04000D0002000B000898AB
:10325000099901F041FC00280BD001235B429C46F8
:10326000200029000022864BE34401F0D4FB040037
:103270000D005A46633223002900C62A5CD8022278
:10328000289810400B9A0C90002A00D196E0042256
:103290000E920B4300D116E7089809997B4A7C4BA4
:1032A00001F020FC002808D0089809990022794BE9
:1032B00001F012FC002800D005E7269B002B4ED021
:1032C0000F9B002B4BD0269B0E9A013B2693279BEE
:1032D000934200D885E00C9B002B00D19BE0022399
:1032E0000C9300230B935B46002B00D157E6089804
:1032F000099922002B0001F08EFB00220890099111
:1033000000233000390001F0E7FB002800D14FE630
:10331000089C099D8020000629008446289A5E4B5F
:103320006144134004930B9B22000393269B02935A
:103330000B000092019347E60222289810400200F9
:103340000C900B98002834D1279B052B5BD9002AC1
:1033500069D1279B053B0B9305230E93C7E7279B5A
:103360000E9A93423DD90C9B002B54D000230B9313
:1033700002330C93B7E780231B069C46BC4463468C
:1033800008960993DDE58020289B434A00061A40F1
:10339000802384460294089C099D2900DB00134386
:1033A0000493279B6144220003930B000092019336
:1033B00071E605220E926CE7052489E6279B042B13
:1033C00019D9002834D1279B043B0B9304230E9377
:1033D00089E700239B460B9302330C9302330E9331
:1033E000DDE50C9B5A1E93415B000C9300230B936D
:1033F00079E70423CDE503005A1E93415B000C934B
:1034000004230E936FE713005A1E93415B000C9345
:1034100005230E936BE7279B9B1A0B9363E75A4692
:103420009C1A013C54E602230C9303330E935EE78F
:1034300004230E93023B0C9355E7C04601FCFFFFAB
:10344000FB799F501344D33FB3C8608B288AC63F93
:103450000000F03F0000F83F61436F63A787D23F51
:1034600071A379094F930A400000E03F1655B5BBA0
:10347000B16B0240EF39FAFE422EE63F00002C40CD
:103480000000244000001840FF0300002D431CEB07
:10349000E2361A3F80842E41FFF7FFFFF0B5454624
:1034A000DE464E465746E0B595B08B469046994667
:1034B0001E9A1F9B0A9019001000209D01F01FFB0F
:1034C000002800D0A4E11E981F990122C74B524248
:1034D00001F002FB002800D00DE11E981F99012287
:1034E000C34B524201F006FB002800D0AAE01E9810
:1034F0001F990022BF4B01F0FDFA002800D08BE09D
:103500001E981F990022BC4B01F0E6FA002800D05B
:1035100082E01E981F990022002301F0DDFA0028A6
:1035200000D0A4E000230B938023229C229ADB008E
:103530001C401A4200D1ACE0092D00D88DE106AA4A
:1035400094462C00172700233022093C674401339E
:10355000FA54E91A202B00D12AE1A342F7D1002224
:103560008A46A44B069207931E981F9901F0F2FA1F
:10357000050001F0D7FA02000B001E981F9901F018
:1035800038FA069A079B01F064FA0890099101F055
:1035900005FB060001F0C2FA02000B000898099929
:1035A00001F027FA0022954B0890099101F0A2FA48
:1035B000002800D1C6E00136300001F0AFFA069ACB
:1035C000079B01F08FFA002801D0002601355346F1
:1035D000002B00D197E006AB17279C460695674461
:1035E000554612E001343B199A460A21300000F09A
:1035F000C5FF53463031197030000A21013D00F0FB
:10360000BDFF092E00D8BAE00600202CEAD1069DA5
:103610000CAB20249A4656E0229B42460493219B01
:10362000594603930A981E9B1F9C02950093019490
:103630004B46FFF751FC15B0F0BCBB46B246A9465D
:10364000A046F0BD229B5B070ED403226C4B22994F
:103650000192039121990291009342464B465946AB
:103660000A98FFF76DFAE6E70422664BEFE71E9A29
:103670001F9B0020002101F0BCF901230B93802344
:10368000229C229ADB001E901F911C401A4200D0FF
:1036900052E700225C4B0692079306239A4663E7A3
:1036A00006AA94461723280063440A2101341E19F0
:1036B0001F0000F03BFF3031280031700A2100F07C
:1036C00035FF051E4BD0202CEAD10323229A13404C
:1036D000012B09D1219B002B06D00B9B002B00D185
:1036E0009EE0219B013B2193229B01940393219B0C
:1036F00002935346B0E7229B0393219B029304233A
:103700000193424BA8E7280001F00CFA02000B00DD
:103710001E981F9901F06DF9384B002206000F002A
:1037200001F0DAF90CAB9A460028CCD10022300027
:103730003900324B01F0DEF90028C4D1EB07C2D5C5
:103740000135C0E70022089809992C4B01F0C4F913
:10375000002800D03BE7002E43D1013637E7032392
:10376000229A1340012B00D181E0202CBCD00B9B6E
:10377000002B26D02D23524613550134B4E7AA4618
:10378000069D202C00D143E7534651461A19302399
:10379000002906D001343B55202C00D138E7944253
:1037A000F8D10CAB9A462E235246135501348AE7C2
:1037B0000022104B8A46202406920793D4E6202C40
:1037C00092D0229B5B0704D52B235246135501341C
:1037D0008AE7229B1B0787D52023524613550134C5
:1037E00082E7F30700D4F2E60136F0E6FFFFEFFFD1
:1037F000FFFFEF7F65CDCD4165CDCDC10000E03F3E
:10380000487B0010407B001080842E41507B0010CC
:10381000229B0393219B0293032301931C4B1BE7E1
:103820000C23229A134214D0219B013B2193A342E3
:10383000C5D906AB17279C4667443023202C00D1FE
:1038400052E7219A01343B5594428ED2202CF8D174
:103850004AE7219BA342ECD846E70E4BEA009B18AF
:103860005C681B68AA460693079400247CE6219BAB
:10387000002B00D179E70B9B002BD1D0219B013B82
:103880002193A342D9D8202C00D073E72CE7C0465F
:103890004C7B0010807E0010F0B5DE4657464E4649
:1038A0004546E0B5A5B01E002E9B92460C93CE4A2D
:1038B000CE4B80468B461A60002900D11DE20023C2
:1038C00030789946002800D11FE2C94B4C460B9333
:1038D000C84B454657460E930AE0631C98462200A3
:1038E0003B005946A84744463078002800D187E07D
:1038F00001362528F1D108239A46043B9946023B1C
:103900009846013B00229C460D943078711C0300C0
:10391000203BDBB2102B03D80B9C9B00E3589F4647
:103920000300303B89460D9C092B3AD90023984669
:103930002A2800D1DDE000239A462E284BD0030030
:10394000683BDBB2122B1ED80E999B00CB589F46CA
:1039500063460E001A43D8E743460E001A43D4E7E5
:103960004B460E001A43D0E710230E001A43CCE753
:1039700053460E001A43C8E780235B001A43FF3BFF
:103980009C467078E1444E4667284FD82428A4D935
:103990000300253BDBB2422B9FD897499B00CB58B5
:1039A0009F46002394461E0000E00131B3009B199E
:1039B0005B001E180878303E0300303B092BF4D919
:1039C0000123624689469C460023B0469A460E0073
:1039D000E1442E28B3D13021802049428C46C000DA
:1039E000024370784B4684446146092900D89EE121
:1039F0002A2800D1ACE101239C464E46E1449EE7D3
:103A0000A146A846BA46CA4503D801235B4253449F
:103A1000994653464A4659460020C047200025B0E3
:103A2000F0BCBB46B246A946A046F0BD0300693BC8
:103A3000DBB20D930F2B00D94FE7012199408C4643
:103A40006E49894661464B4619400F916346494687
:103A50000B4200D05BE10D9B0A2B56D0072B00D008
:103A60003BE70C9B190008C98846002B00D083E176
:103A7000102310009843113318438146802013000F
:103A8000C000034002421CD114A98C461F220F2102
:103A900062440D958C4615000F990C9402E0202984
:103AA0000CD0130064461C4020003730092C00D88D
:103AB0000738013168541A090F2BF0D80C9C0D9D62
:103AC0000F914B4606930823059353460493102306
:103AD0000393002302930F9B220001931CAB0093DE
:103AE00059463B002800FFF781F8434604000C9339
:103AF000FAE60C9B02CB884600295FDB0C9301237E
:103B00009C4670784E46E14415E70C9B02CB14931B
:103B1000534608780C90002B00D127E1013B002888
:103B200001D100F070FC01339C468C440B008946A7
:103B30000C986146944601E08B4203D05A780133D9
:103B4000002AF9D1494662465B1A0C900D93530541
:103B500000D476E10D9B534501D953460D930223C2
:103B6000180010400F90134200D1B2E20F93D146DB
:103B70000B1B9A463300A1442E0022004D460C98A0
:103B8000B9465F469B4609E04B463900541CB04796
:103B90005346185D002800D179E122009542F3D107
:103BA0005B46BB464F46A94635004C461E000F9B60
:103BB000002B00D094E1149B0C9395E60C93012309
:103BC0009C46283849420243884670784E46E14474
:103BD000B1E670786C2800D152E180235B001A4373
:103BE000FF3B9C46E144CEE699380010801C002043
:103BF000E07C0010247D0010707D001041900000DA
:103C000080239B001A4301239C467078E144BAE666
:103C10007078682800D12DE180231A437F3B9C46B1
:103C2000E144B0E6672800D1AAE0472800D102E1CC
:103C3000452800D102E10492072142460C9B0392E1
:103C4000073352468B43190002920CC92800009298
:103C500001930C9122003B005946FFF73DF9040007
:103C600042E6462800D18FE00492072142460C9B91
:103C70000392073352468B43190002920CC9280065
:103C8000009201930C9122003B005946FFF706FC7D
:103C9000040029E6631C984622003B005946252073
:103CA000A847444620E60C9B04330D93631C9946B9
:103CB000920700D4F0E00C9B2200187859463B0094
:103CC000A84743464444012B00D853E23300B8468A
:103CD0002E005F4625004C4699462200434601349B
:103CE00039002020B047AC42F7D12C00BB4635004C
:103CF00047464E460D9B0C93F6E5DA4B30789846D6
:103D000000239946002800D0DFE500247BE66F28D9
:103D10003DD000D8D5E21023782800D185E09A4321
:103D20000A239C4600230F930A330D9335E0564631
:103D3000B1008919490001330E181878303E01008E
:103D400030390929F4D9B2461E0001339946F6E507
:103D50000C9B023602CB8A46C9435046C91708401D
:103D600082460C933078731C9946E8E5002800D110
:103D700049E302235B42D6E621200243914683E6D3
:103D800080231B011A4356E720231A436CE70823BC
:103D90009C4600230F9308330D9380231100DB0012
:103DA00019401A4200D12DE10D239A4310008023BF
:103DB00002009B001A401492184200D0DCE18023DC
:103DC00002005B001A4091460C9A04320F9218428E
:103DD00000D0C7E2430600D5B1E1030600D41FE3DB
:103DE0000C9B1B880993002B00D015E210339843DD
:103DF000002900D110E2002399464346059353461B
:103E000004930D9B069003930023ECE0582809D0FF
:103E1000622800D080E002239C4600230F930233E7
:103E20000D93BAE720231A43103B9C4600230F93BF
:103E300010330D93B1E780231B011A4320231A434B
:103E4000F9E60223180010400F90134200D131E22E
:103E50000F930B1BB1469A465E460C9822003B001E
:103E60003100A84753460134185D0028F6D1B34607
:103E70004E469CE6C0231A43F31C9946B07882E56F
:103E8000C0239B001A43F31C9946B0787BE53500AC
:103E90005E46BB464F468AE64346012B00D863E1A7
:103EA000631E43449A463300B9462E005F4655468A
:103EB0009B46A24622004B46013439002020B047E1
:103EC000AC42F7D135005E46BB464F46A14654464C
:103ED0000C9B4A46187859463B004444A84709E7DA
:103EE000A1460D9B984500D865E64444E41A33008A
:103EF000B8462E005F4625004C46994622004346B0
:103F0000013439002020B047AC42F7D12C00BB4629
:103F1000350047464E464EE680231000DB00184031
:103F20001A4200D107E1112118008A430D920D9A1F
:103F3000802311009B0019408C461A4266D18023D1
:103F400011005B00194089460C9904310F911A4207
:103F500000D0C9E113005B0600D5E8E013001B06A2
:103F600000D44AE20C9B00229B5ED9175A184A40A3
:103F700092B2D90F0C91002B00D1B1E1100014AA1C
:103F8000944642461F23159252466344A846149411
:103F90004D460400B946B2461F00169201E0202D9E
:103FA0000FD020000A2100F0E9FA01357E193031E6
:103FB000317020000A2100F0E1FA26000400092EE9
:103FC000EDD8159B4F46A94645469846169B564642
:103FD0009A46149C0D9B06934346059353460493BF
:103FE0000A2303930C9B02934B4601931CAB2200C4
:103FF000009359463B002800FEF7F8FD0F9B040094
:104000000C9371E40C239A431000D0E607220C9B1A
:1040100007339343013294469C4462460C920CCB86
:10402000D90F0F911100194300D08CE0002399465D
:10403000002837D1002200231092119314AA0023E4
:10404000944642469946159252461F336344A84609
:10405000B24614944E46109C119DB94616921F000C
:1040600004E0C0463D2B0010202E10D02000290077
:104070000A22002300F0C0FA013630322B00BA5574
:104080000D0022000400002BEED1092AECD8159B6C
:104090001094119545469846169B4F46B146564694
:1040A0009A46149C0D9B06934346059353460493EE
:1040B0000A2303930F9B02934B4601931CAB2200F0
:1040C000009359463B002800FEF790FD0400FFF7DF
:1040D0000BFC0D9B984500D8B6E18023DB000F93C5
:1040E00043460D9A1B199B1A994633002E004D46E4
:1040F000B9465F469B460C9122004B46013439007D
:104100002020B047AC42F7D143460C9901330D93C0
:104110000B7835000C935E46BB464F46002B00D112
:1041200049E50F9B002B00D193E600231EE50C9B75
:104130001B781A001DE710239A430D92F7E60C9B9B
:104140001B7809934FE6D9171391129151401091A2
:1041500013995940119110981199129A139B801A32
:1041600099411090119169E70C9B220018785946EB
:104170003B00A8474C46BDE50C9AFA3BFF3B073293
:104180009A430133994691444B460C931368526805
:1041900015921A4305D1103290430022099200294A
:1041A0007DD16122810600D54122D2B20A9214AAA1
:1041B00091460A9A00210A3A1492424618925246AF
:1041C00019925A460991B3461F311E000F9B49446C
:1041D000BA4616941A950024674698468946159D56
:1041E00017901B920AE03032D2B24B4601341A5576
:1041F000A84546D0202C46D006000D003A000023EA
:104200003000290000F0F8F9D2B2092AEBD9149B4A
:104210009C466244D2B2E8E76123820600D541237E
:10422000DBB214A90A3B1F228C460C93434662441E
:10423000A846149417974C461700B146099D0D9E49
:104240001590169308E03033DBB201343B55B5428C
:104250000ED3202C0CD005003100280000F08EF980
:10426000CBB20929EFD90C9A94466344DBB2ECE750
:10427000169B45464E469846A1461598179F149C96
:10428000BBE5B742B6D9189B57469846199B5E4680
:104290009A461B9B09949B461798169C1A9D434669
:1042A0000593534604930D9B0690039300230293BA
:1042B000099B02E70D9B984500D911E701330D9347
:1042C000C7E51023110099430D91692800D0B9E08A
:1042D00080231000DB0018401A4200D127E622E6B6
:1042E000002800D076E64AE60C9B1B68DA0F110026
:1042F000002B7FD0DA179818504014AA91461F233C
:1043000042464B44A8461494169704006546B146AD
:104310001F000C91159201E0202D0FD020000A21E2
:1043200000F02CF901357E193031317020000A215E
:1043300000F024F926000400092EEDD8159BAC46A8
:10434000454698460C9B4E461900149C169F0D9BA3
:104350000291069343460593534604930A2303931D
:10436000634642E60C9B1B689946002B03D1103331
:104370009843002933D16123820600D54123DBB263
:1043800014A90A3B1F228C460C9343466244A8465C
:1043900015944D461897B1461700149C0D9E169023
:1043A000179308E03033DBB201343B55B5420ED3EE
:1043B000202C0CD005003100280000F0DFF8CBB233
:1043C0000929EFD90C9A94466344DBB2ECE7179BBA
:1043D00045464E46984614941698159C189F434699
:1043E0000593534604930D9B069003930023029379
:1043F000149BFAE50028AAD17FE70C9B1B68D9170C
:104400005A184A40B5E580231000DB0018400D9093
:104410001A4209D092071BD50023A1460D9360E5EF
:104420000C9B1B680993DEE4022318001040A14690
:104430000F90134200D054E54346002B00D04FE6C6
:10444000FFF7B9FB0A006BE401330D93FFF78FFB15
:104450004346002B01D1FFF7AEFB00230D938023D1
:10446000DB000F933CE6C04600B585B00391012107
:1044700002900093034813004A4202A9FFF70CFA86
:1044800005B000BDC92E001010B5094A030014681C
:1044900084B0002C08D0012200910648524203A9A2
:1044A000A047012004B010BD00F0C8FF0020F9E7CC
:1044B000801C0020B92E001001480421014B184730
:1044C000E00E0020E9440010142310B50100188804
:1044D00004331B88984710BD162310B501001888B7
:1044E00002331B88984710BDF8B54746CE4680B5C5
:1044F0000F1E19D014239946043304000025012609
:1045000098464B461888434621681B88984701C443
:10451000431E9841013540420640AF42F1D1300080
:10452000C0BCB946B046F8BD0126F8E7124A936F01
:104530009B0815D29066D166002905D0FFE7FFE7FA
:10454000FFE7516F106F704704B580210906C2174D
:104550005140002800D0C84303F002FA002104BDF6
:10456000F0B5146E556E576F166FFFF7E3FF1466C4
:10457000556657671667F0BD000000D0114A936F6B
:104580009B0813D210665166002905D0FFE7FFE7AC
:10459000FFE7516F106F704704B5002801D000206D
:1045A000C04303F0DDF9002104BDC046F0B5146E30
:1045B000556E576F166FFFF7E5FF14665566576720
:1045C0001667F0BD000000D094464A4A926F9208E8
:1045D000624601D228E0C046F0B5464E346E756E94
:1045E000776F366F00F020F89446424A146655669D
:1045F000576716676246F0BD94463E4A926F92082E
:10460000624601D254E0C046F0B53A4E346E756E43
:10461000776F366F00F04CF89446364A146655664C
:10462000576716676246F0BD002B24DB11D00029C6
:104630003EDA00B5C943404200D1013100F038F8FC
:10464000C943404200D10131DB43524200D1013322
:1046500000BD002AEBD1002801D1002905D000209F
:10466000C90FC90701D1C043410800B503F068F97B
:104670000022002300BD00B500290ADBDB435242C3
:1046800000D1013300F014F8C943404200D1013198
:1046900000BDC943404200D10131DB43524200D149
:1046A000013300F005F8DB43524200D1013300BD75
:1046B000002923D1002B18D1002A0CD0BC460D4F65
:1046C00038667A6600210023FFE7FFE7FFE77A6F8D
:1046D000386F67467047002801D00748010000B5D1
:1046E00003F02EF90022002300BD02000B00002081
:1046F00000217047000000D0FFFFFFFF002B00D01B
:10470000BFE0130C28D1002AE7D080B4114F3966DE
:104710007A66FFE7FFE730B4040C7B6F396F1B0448
:1047200023433B667A66FFE7FFE7FFE7C04684B2B4
:104730007B6F3D6F1B0423433B667A66FFE7FFE711
:10474000C04600232C042D0C7A6F386F0019694184
:10475000B0BC7047000000D0F0B594460025140EA0
:1047600001D112020835140F01D112010435940F42
:1047700001D192000235D40F01D152000135D40B82
:104780000134254F7C66254C3C660E0C93B2FFE746
:10479000FFE7FFE73C6F6643360C7703BE46734383
:1047A000DF0B5B04C01AB941130C7343DB18C91A41
:1047B000CE086643360CB64493B273431F0F1B01F9
:1047C000C01AB941130C73431F0B1B05C01AB94122
:1047D000860D8F023E436643360C092D24DB520AB8
:1047E0007243801A7703460A6643360C16235B1B16
:1047F000DE40DF40BF1964466643821B70460435C5
:1048000006330100D940A840C01900D30131A242AB
:1048100006D20023F0BD0000000000D0FFFFFFFF24
:10482000121B0130F3D3F1E709277F1BFE406446DA
:10483000A2B27243801A00D20139220C7243130CC7
:104840001204821A99410B00704604351337010097
:10485000F940A840801900D30131002B02D1A242B7
:104860000AD2F0BD013000D30131121BFAD2013B54
:10487000F8D1A24200D2F0BD013000D30131121BA9
:10488000F7E7F0B51C0C00D080E00CB400251C0A42
:1048900004D11B02160E3343120208351C0B04D13F
:1048A0001B01160F3343120104359C0B04D19B00EE
:1048B000960F334392000235DC0B02D192185B4114
:1048C00001351C00971864410134464F7C66464C04
:1048D0003C660E0CFFE7FFE7FFE7C0463C6F664310
:1048E000360C7703BE4697B27743C01B00D201391E
:1048F000C01B00D201399FB27743C91BC91B170CDB
:1049000077437E04FF0B801BB941CE086643360C0B
:104910000C2D33DBB644120B1F053A431B0B97B229
:104920007743C01B00D201399FB27743C91B170CD4
:1049300077433E043F0C801BB941860D8F023E43F6
:10494000664329277F1BFE400C3D7746AF40BF19C9
:1049500030BCA2B2ABB272437343801A9941220CAD
:104960007243130C1204801A994102000B000137A4
:10497000001BA941F9D2781E0021F0BD0C277F1B36
:10498000FE4077467F0BAF40FF19E0E700245D1C37
:1049900007D0144F7D663966FFE7FFE7FFE7FFE7C3
:1049A0003C6F95B29EB265436643401BB141150C06
:1049B0001E0C6543664336042F0C3E432D04401BFA
:1049C000B141994204D202000B0020000021F0BD49
:1049D00001D19042F7D3801A994101349942F2D320
:1049E000F6E70000000000D0FFFFFFFF4840414015
:1049F000484018B41B4B5B68FC46019308BD04DFBC
:104A00007F4C001018B4174B1B68FC46019308BD7F
:104A100000DF894C00109446134A926F920809D225
:104A2000624618B40F4BDB68FC46019308BD0CDFEF
:104A3000414F00100C4AF0B5146E556E576F166F4B
:104A40006246FFF7EEFF084A146655665767166719
:104A5000F0BD18B4034B9B68FC46019308BD08DF0A
:104A6000E54D001090100020000000D0FFB5504030
:104A70004240504059404B40594000E0FFB5154F6F
:104A80004C00640D03D0BC4204D10C0314D80020A8
:104A9000090D09055C00640D03D0BC4204D11C0360
:104AA0000AD800221B0D1B0501264B4009D44B40A0
:104AB00003D58B4200D18242FFBD9942FCD1904286
:104AC000FFBD0B43DB1803431343F5D0C94349181B
:104AD000FFBD0000FF07000000B5FFF7CFFF8041DA
:104AE00000BDC04600B5FFF7C1FF01D9002000BDE1
:104AF000012000BD00B5FFF7B9FF804100BD0120D6
:104B000040054A00121804D85A00121801D8002093
:104B100070470120704700207047000000210028E6
:104B200005D17047C1174840401AFAD0C90713B5DC
:104B3000064B1B6898470CBC441CA2401005120B86
:104B40000349091B09051943114310BDAC1C002082
:104B50001F04000010B54C00620D8023D218DB004A
:104B6000D21A5B057E2A10DD9E3A13DACC170903B0
:104B7000490819435242D140640001341532202AB9
:104B800005DAD0400843604310BD002010BD084640
:104B9000604310BDC80FC018013810BD18B4044BD5
:104BA0005B6AFC46019308BD24DFF1500010000051
:104BB00090100020132370B51D78012D15D010DD45
:104BC0001D48FFF789FC1D4C01008022200000F0E9
:104BD0005DFB022D2DD01A48FFF776FC194B1860AB
:104BE00070BD194B154CA364F5E7174B134C2360AC
:104BF0006360A360E36023616361A361E361236297
:104C00006362A362E36223636363A363E363236476
:104C10006364A364E36423656365A365E365236656
:104C20006366A366E36623676367A367E367A364BA
:104C3000D1E7054BA364CEE7534400009010002059
:104C40004C330000AC1C00204D4C001007B56046F2
:104C500001880A0A0230DF2AFAD1C9B2820804D3D5
:104C6000028840880004104300E00068014A505068
:104C7000039007BD901000200FB403BC0CBCF0B52E
:104C80000124E407634000E0F0B50C0DCF0F661E71
:104C90003605891B640503D3C943404200D3013163
:104CA000640D03D0661CF60A07D0E41B00207F00C9
:104CB000791C89078912803C24031D0DDF0F6E1EAD
:104CC00036059B1B6D0503D3DB43524200D30133F2
:104CD0006D0D03D06E1CF60A07D0ED1B00227F007D
:104CE0007B1C9B079B12803D2D032F1B661B58D4FA
:104CF000A446202E46DA20371400BC401D00BD40DB
:104D0000F24033412A4380185941CB0F05D0C943A3
:104D1000C043002264425041514162464D0D28D1AA
:104D20000D0D07D100281FD0241940414941013AF7
:104D30000D0DF9D0640006D3013000D30131002CF1
:104D400001D140084000013A0BD4941CE40A04D17C
:104D500012051144DB071944F0BDD907204B194354
:104D600000E0D9070020F0BD0029DDD1002CDBD107
:104D7000F0BD0132C6074008CD0728434908002E80
:104D8000E1D0D9E73C2E29DA203E40371400BC4060
:104D900000D00124F24014431A00BB401C43D31737
:104DA000ACE7AC46202F08DA20360400B4400D00F2
:104DB000B540F84039412843A5E73C2F0CDA203FA5
:104DC00040360400B44000D00124F84004430800F9
:104DD000B1400C43C117EAE710001900002494E722
:104DE0000000F07FF0B50C0D661E3605891BE60A43
:104DF0006405640D02D0651CED0A04D00020012179
:104E00000905803C2403A4461C0D671E3F05DB1BDF
:104E1000E70A6405640D02D0651CED0A04D0002287
:104E200001231B05803C24037740644497B484B27B
:104E300096B27443070C7E43150C6F4380B26843EF
:104E4000361802D3012000043F183004350C001935
:104E50007D41844688B29AB250430C0C62431F0CC9
:104E60007C438EB27E43921902D301263604A419E4
:104E70001604170C3618674101BC81B29AB251432F
:104E8000040C62431B0C5C4380B25843121802D3DB
:104E90000120000424181004130C401863412D183D
:104EA0005E410020474106BC88B293B258430C0CC7
:104EB0006343120C544389B251435B1802D301215E
:104EC0000904641819041A0C091862416D18564136
:104ED0000020474118BCF902720D1143F0026A0D1F
:104EE0001043ED020A0D03D16D1940414941013BC8
:104EF000124E9B1B7600B3420ED26D0007D30130D9
:104F0000002671416646354301D1400840001B052B
:104F1000C918E4072144F0BD0BDA013306D1013092
:104F200004D101314F0D01D04908F2E7E10700201B
:104F3000F0BD013631050020EBE70000FF03000063
:104F4000F0B51C0D671E3F05DB1BE70A6405640D09
:104F500002D0661CF60A04D0002201231B05803C07
:104F60002403D0252D060026F6432E661E096E6604
:104F7000CE0FF619B44649004F0D02D07E1CF60A3A
:104F800003D000200021403F3F033E1BB600B44445
:104F9000013F7F05C91B49082E6F013676089C0228
:104FA000950D25437543ED137543AD1301356D1014
:104FB000F603761B0CB4CC02450D2C43A2B2B3B25F
:104FC0005A43270C7B43350C6F43A4B26C431B1927
:104FD00002D3012424043F191C041D0CA4187D4194
:104FE00024196D41009A91B2ACB26143170C7C4315
:104FF0002B0C5F4392B25A43A41802D3012212042D
:10500000BF182204230C52187B41019C6C431B19CE
:10501000520ED9010A434401A01A81B2B2B25143DF
:1050200003145A43360C734387B27743D617D21909
:1050300000277E4136049B191704160C7F185E4129
:105040007316ED18F301002680337541A90F06D1C0
:105050006400690AE8055B0A184309D22FE00422BC
:10506000944480337541A90AA8059B0A184326D3A6
:10507000404149412404009A019B0D005543641BA3
:105080004343E41A95B286B27543170C7E43030C72
:105090005F4392B25A43B61802D301221204BF18DA
:1050A0003204330C52197B4152429C41002C02D4F1
:1050B0000022013051414008CA071043490802B09C
:1050C0006246D7079210084BD218084B9A4203D277
:1050D00012058918C919F0BD0020002A01DC390029
:1050E000F0BD01331905F5E7FD030000FE070000E0
:1050F000002200B5203200F004F8080000BD0000D6
:1051000000220B150AD410B5944600F031F814149F
:10511000013400DA0021CB17144C20470020002175
:1051200070476244343A0CD40C2A07DA04009140E8
:10513000904052422032D440214310BDD843D9433D
:1051400010BD203207D40C46944052422032114107
:10515000D040204310BD0800C917203203D452426A
:105160002032104110BD1800190010BD235100104D
:105170000A0DCC0F531E1B05C91A520503D3C94390
:10518000404200D30131520D03D0531CDB0A07D03B
:10519000121B00206400611C89078912803A1203E7
:1051A000014BD21A70470000FF03000051434343F4
:1051B000C9188C46110C83B24B4310B4040C6143E4
:1051C00092B280B2504362431C041B0C001910BC05
:1051D00059411304120CC01851416144704700003A
:1051E000132310B512481C78FFF776F90100012C43
:1051F0000AD003DD80220F4800F048F80E48FFF780
:1052000063F90E4B186010BD0A4C5422200000F0C8
:105210003DF80B4B6365A365E36523666366A36690
:10522000E36623676367A367E3672362E361E5E7F8
:1052300053460000901100204C330000AC1C0020AD
:105240004552001007B5604601880A0A0230DF2A7D
:10525000FAD1C9B2820804D30288408800041043FE
:1052600000E00068014A5050039007BD90110020F3
:1052700001480421014B1847F00E0020E9440010BA
:10528000014B1B6818470000F00E0020014B5B68C3
:1052900018470000F00E0020F0B5C64600B5437D6B
:1052A00007000D001600002B43D0002A1EDD0B78EE
:1052B000027D0A2B35D001240020A64209D06B1EA6
:1052C0001A5D631C98462B5D0A2B12D04446A642F9
:1052D000F5D1864203DD311A3B6828189847AD198D
:1052E000013D2B780D3B5A4253413B7580BCB8467B
:1052F000F0BD0D2AEAD0844203DD211A3B6828184C
:10530000984744460D4802213B6898472000A64232
:10531000D5D1AD19013D2B780D3B5A4253413B7518
:10532000E4E70124002AEDD00123984600204446FA
:10533000CDE70368110028009847D7E7F47E0010F6
:10534000F0B5C6460B6806000C0000B5802B06D0F1
:105350005A1C2260E418267180BCB846F0BD0F4B81
:105360001D68002D16D00B1D98460D4F02E02D69CB
:10537000002D0FD02B68002BF9D03B68002B01D0FB
:10538000AB42F4D1280041462268FFF785FF2D6922
:10539000002DEFD101220023DBE7C0467418002066
:1053A0007C180020F0B5CE46474680B583B06B46EA
:1053B0000600DD1D2870FCF72DFE00231A4A121886
:1053C0004B41802109068B4202D30122174B5242E6
:1053D00017490800884602F0E3FA164B81461C681C
:1053E000002C14D0144F02E02469002C0FD0236845
:1053F000002BF9D03B68002B01D0A342F4D1200050
:1054000001222900FFF748FF2469002CEFD14B4609
:10541000002B05D1300003B0C0BCB946B046F0BD8A
:10542000404602F085FAF5E740420F00FFFFFF7F9C
:10543000400F0020741800207C180020F0B5DE46D4
:1054400057464E464546E0B585B0070002F05EFA85
:105450000600FCF7DFFD00232B4A12184B41802188
:1054600009068B4202D30122284B524228490800E8
:105470008B4602F095FA274B01901C689A46002C47
:105480003BD0254B984602ABDD1D0A23994602E02E
:105490002469002C17D02368002BF9D043461B68E1
:1054A000002B01D09C42F3D1200032003900FFF7DD
:1054B000F3FE4B462000012229002B70FFF7ECFE83
:1054C0002469002CE7D1019B002B18D153461C689E
:1054D000002C06D06368002B0BD098472469002C61
:1054E000F8D1300005B0F0BCBB46B246A946A04694
:1054F000F0BD2469002CEDD1F3E70028F1D0584627
:1055000002F016FAE2E7C04640420F00FFFFFF7FBD
:10551000400F0020741800207C1800200A4A1368ED
:10552000002B05D10CE01A001B691032002B07D0AC
:105530009842F8D1002902D10369136001617047D4
:105540000029FCD01060FAE774180020F0B5CE46B0
:10555000474680B5A3B004000D00FCF75BFD0023B7
:10556000294A12184B41802109068B4202D301229D
:10557000264B5242264F380002F012FA0023060052
:10558000019322002B00234801A9FEF76DFF019B28
:105590008046002B14D1204B1C68002C06D0636879
:1055A000002B0BD098472469002CF8D1002E25D170
:1055B000404623B0C0BCB946B046F0BD2469ECE714
:1055C000154B1D689946002D1CD0144C02E02D6926
:1055D000002D0FD02B68002BF9D02368002B01D0B1
:1055E000AB42F4D12800019A02A9FFF755FE2D69BC
:1055F000002DEFD14B4601951C68CEE7380002F034
:1056000097F9D5E70195D1E740420F00FFFFFF7FF3
:10561000400F002041530010741800207C18002017
:105620000FB400B583B004A901C90191FFF78EFF43
:1056300003B008BC04B0184710B500F0D9F910BD8C
:105640007047C0460022014B1A707047E21C0020D0
:105650004B790020FF2B0BD18B79002B08D1CB7914
:10566000012B05D1082A03D9024B8A7809301A7018
:105670007047C046E21C00200120704770B5012928
:1056800001D0012070BD13495379107909781B02AC
:10569000034300209942F5D15378012B08D0022B07
:1056A000F0D1002064220021FDF74AF90120E9E74A
:1056B0009478D278050012021443D20502D5620A0A
:1056C00093401D000448FEF7FFFE7F2103002140A8
:1056D00028009847E21C0020554200000123037077
:1056E00000487047F87E00104B780A781B0213437D
:1056F0008A7810B512041A43CB781B0613439622FE
:10570000D200934200D010BD0348FEF7DDFE002119
:10571000030008009847C04655420000024B18603D
:10572000024B19607047C046001800200418002082
:1057300010B5024B1878FBF7ADFD10BDE31C00203F
:10574000114B70B51A68002A1AD0EFF3108172B6A7
:1057500010680028FCD0BFF35F8F00200B4A59600F
:1057600010701B68BFF35F8F186081F310880024EE
:105770000025074B1878FBF78DFD2900200070BD30
:10578000FA240025A400F4E78C1C0020E41C00206F
:10579000E31C002070B5040000200E0001F0E8FAC0
:1057A000002836D0002001F0FBFA002831D0FCF7A9
:1057B00031FC0023184A12184B41802109068B4204
:1057C00016D2164D280002F0EBF8002821D0002058
:1057D00001F0CEFA00280FD101200021404200F054
:1057E000C1FC03246442280002F0A2F8200070BD2E
:1057F00001220B4B5242E4E7002001F0D1FA0028CD
:10580000EAD021003200002001F0D6FA041EEAD1CD
:10581000E7E703246442E9E740420F00B41C00209C
:10582000FFFFFF7FF8B5DE46574680B505000C0048
:10583000FCF7F0FB0023374A12184B418021090680
:105840008B4202D30122344B5242344908008A462B
:1058500002F0A6F8002803D1C0BCBB46B246F8BD92
:10586000002001F085FA00284AD00026002C43DDF4
:105870002B4B9B4614E0A919002001F011FB0700F7
:1058800001200021404200F06DFC002001F0CCFA24
:10589000FCF7C0FB224BF61918605960B4422BDDAF
:1058A000002001F017FBA71B0200B84200DD3A0000
:1058B000002AE0D101200021404200F053FC0020EA
:1058C00001F0B2FA002001F053FA002814D00020B1
:1058D00001F000FB0028E1D1FCF79CFB5B460F00C8
:1058E0001A685B68002184460E4812184B419F429B
:1058F00002D8D3D19445D1D9504602F019F8ABE77C
:1059000000200021064B18605960504602F010F844
:10591000A2E7C04640420F00FFFFFF7FB41C0020FB
:105920008810002020A1070010B5244C84B000216D
:10593000200002F025F800281CD1214B1A68002A0B
:1059400016D0EFF3108172B610680028FCD0BFF3B8
:105950005F8F01241B48596002781B68D2B2047023
:10596000BFF35F8F0020186081F31088002A0AD0EF
:1059700004B010BD01200021404200F0F3FB2000E4
:1059800001F0D6FFF4E7FCF737F90400FCF742FB1F
:10599000FA220023920012184B41802109068B4203
:1059A00002D30122084B52420121029100210191B0
:1059B000064920000091FCF723F9D9E7B41C002028
:1059C0008C1C0020E41C0020FFFFFF7F41570010CB
:1059D000054B10B51868002804D0044B0022196844
:1059E00001F036F810BDC046001800200418002051
:1059F000D02310B51B0684B01C68FCF7FDF8FCF73B
:105A0000BDF9A04202D0002004B010BD274B1B7886
:105A100001F042FC2648FBF7FDFE0120FBF7DCFE0F
:105A2000FF23244C244920701840FBF759FC2078B0
:105A30000121FBF71DFC0520FBF734FC002827D1D2
:105A4000FCF7DAF80400FCF7E5FAFA2200239200EA
:105A500012184B41802109068B4202D30122174BB9
:105A6000524201210291002101911549200000912B
:105A7000FCF7C6F80822040000211248FFF700FCDA
:105A8000002CC0DB10480121FFF748FD0120BBE7D7
:105A900000220E490520FBF74DFCFBF7CBFB094B21
:105AA00001001800FBF7E0FEECE7C0465C80001048
:105AB000B41C0020E31C002029590010FFFFFF7FC9
:105AC000415700108C1C0020000F0020315700109F
:105AD00000487047887F001000487047347F0010EE
