:020000041000EA
:1000000000B5324B212058609868022188439860DF
:10001000D860186158612E4B002199600221596106
:100020000121F02299502B49196001219960352056
:1000300000F044F80222904214D00621196600F024
:1000400034F8196E01211966002018661A6600F04E
:100050002CF8196E196E196E052000F02FF8012189
:100060000842F9D1002199601B49196000215960AB
:100070001A491B48016001219960EB211966A021F2
:10008000196600F012F800219960164914480160C1
:100090000121996001BC002800D000471248134993
:1000A000086003C880F30888084703B5996A0420EC
:1000B0000142FBD001200142F8D103BD02B5186610
:1000C0001866FFF7F2FF186E186E02BD00000240BE
:1000D000000000180000070000035F00212200005C
:1000E000F4000018222000A00001001008ED00E03C
:1000F00000000000000000000000000074B24E7A12
:1001000000200420F7010010CB010010CD010010E9
:10011000C9010010C9010010C9010010C901001077
:10012000C9010010C9010010C9010010CF01001061
:10013000C9010010C9010010D1010010D301001045
:10014000C1010010C1010010C1010010C101001067
:10015000C1010010C1010010C1010010C101001057
:10016000C1010010C1010010C1010010C101001047
:10017000C1010010C1010010C1010010C101001037
:10018000C1010010C1010010C1010010C101001027
:10019000C1010010C1010010C1010010C101001017
:1001A000C1010010C1010010C1010010C101001007
:1001B000C1010010C1010010C1010010C1010010F7
:1001C000EFF30580103800BE00BE00BE00BE00BECA
:1001D00000BE00BEF2EB8871EC7200100C730010D0
:1001E0003802001090A31AE71E481F49086006C88D
:1001F00081F3088810471D480068002801D019487D
:10020000F3E70DA40ECC002902D000F012F8F9E7B4
:100210001749184A002000E001C19142FCD116495B
:100220008847164988471649884700BEFDE701C937
:1002300001C29A42FBD370470C730010C00000202B
:10024000101200205C840010000004200000042034
:100250005C84001000100420001004200000000046
:10026000704700000000000008ED00E0000000D032
:100270001012002010210020E93E00102103001080
:10028000E13E0010F8B5C04610B5064C2378002BAF
:1002900007D1054B002B02D0044800E000BF01232A
:1002A000237010BD98150020000000003C6C001069
:1002B000044B10B5002B03D00349044800E000BFF5
:1002C00010BDC046000000009C1500203C6C0010D2
:1002D00084B030B5C1B0449045914692002180224F
:1002E00020A8479302F030F98022684644A902F022
:1002F00031F9EFF3108572B680248021A403200029
:10030000490106F051FC802269462000520006F0A7
:100310002BFC85F3108841B030BC08BC04B01847F2
:1003200000B5BDB003F01CFF0C4800F013FE8022A6
:100330000B491CA802F00EF9702220A9684602F0B1
:1003400009F91C981D991E9A1F9BFFF7C1FF812177
:100350000448054A490503F0DBFFFEE78813000067
:10036000C86D0010406C0010200020108023DB05B9
:100370001868000F7047C0460FB400B5084883B036
:1003800003F03EFF049B002B07D005A91800019144
:1003900003F08CFD034803F033FF012003F09EFDC2
:1003A000586C0010686C001070B5EFF3108C72B6CA
:1003B0000D4D2B68002BFCD0BFF35F8F0724CB08BB
:1003C000C618C05C01230C40A3401C00044003423B
:1003D00007D118433070BFF35F8F2C608CF3108807
:1003E00070BD1000FFF7C8FF2C0100D0F8B54746DC
:1003F000CE46884680B5EFF3108C72B6214D2C683E
:10040000002CFCD0BFF35F8F9A422CD8D40807276A
:10041000055D061901241740BC402C421FD007215E
:100420000127894609E0D408055D06194C463900C4
:100430001440A1400C00294211D001329342F2D263
:1004400001204042BFF35F8F00220E4B1A608CF3F5
:10045000108800280FDBC0BCB946B046F8BD254364
:1004600010003570EEE7BFF35F8F00232B608CF335
:100470001088012040424346002BECD00898FFF73B
:100480007BFFC0462C0100D0044A1078431CDBB22D
:10049000172B00D9102313707047C0464811002055
:1004A00010B5064B064C82B00100009318221F23A2
:1004B0002000FFF79BFF02B010BDC0466C6C00101F
:1004C000541C00200021044B044ABFF35F8F02C379
:1004D0009342FAD17047C046000100D0800100D09D
:1004E000054B064A1360064A136053609360D3605D
:1004F00013615361936170478080808000E400E065
:1005000004E400E01F2318401E3B8340002905D06F
:10051000C021044A490053501360704780220149AA
:100520008B50FAE700E100E001228240034B1B6898
:1005300013405A1E9341D8B27047C04600E100E014
:1005400001238340014A13607047C04600E200E087
:10055000064B10309B688000C358054A00209B1A48
:100560002F229A424041C0B27047C04600ED00E0E1
:100570004C11002070B50D00EFF3108672B60F4AD3
:100580001368002BFCD0BFF35F8F0D4B10309B68BE
:1005900084001B590B4A934203D09D4201D000F0C6
:1005A000FBFF074B9B681D51BFF35F8FBFF35F8F4E
:1005B0000022024B1A6086F3108870BD240100D01F
:1005C00000ED00E0C1010010F0B557464E46DE4692
:1005D0004546E0B585B0060000911700EFF3108B9B
:1005E00072B66A4A1368002BFCD0BFF35F8F0025F8
:1005F000674B5D579A46002D00DAA9E06B00654C09
:1006000001935B199B009846A146C1444B46524654
:100610009B7910361370604BB6009B6899590B1B81
:100620002F2B33D95D4B994200D0ACE0019B424661
:100630009C465B4B6544AD0063535A4B0232A21893
:10064000043B9B1A1B05584A5B0D651913436B80CD
:10065000564B0121AB80FF23AB71009BEF71AB6068
:100660004B460B4319004C4B9B689951BFF35F8F6E
:10067000BFF35F8F0022454B1A608BF3108805B0E3
:10068000F0BCBB46B246A946A046F0BD01200A0018
:100690008243D3798C46BB4231D845461300444946
:1006A0001B1B5B415943090D3D4B63533D4B0235C9
:1006B0006519043B5B1B1B053B4D5B0D2B43AA4699
:1006C0004D466B800425AC465546E044131F444418
:1006D0001B1B1B055B0D1D434B46997100999D80AB
:1006E00099604946DF71334B01431360BBE7580003
:1006F000C01880002018C179B9422FD90200062302
:10070000D356002BF3DA02932B4B61460393131D50
:100710009A4604235B429C46E14450464B461B1AD2
:100720001B055B0D9C46204B9571984663464046E1
:1007300003439380019B5A199200039BA418A38042
:10074000029B1C4AA371009B2260E771A3608AE7A9
:1007500000F022FF002553465D574FE79088029333
:100760004005131D9A46031561469C464046D444F5
:10077000634604302018181AE0230005400D1B02C0
:1007800018430390C5E700F007FF4FE7240100D0AE
:10079000092100204C11002000ED00E0C1010010F3
:1007A00000A1FFFF7C11002000E0FFFF01BDFFFF63
:1007B000AAAA00000148804701BD000070B50124CD
:1007C0000443EFF30581EFF3108C72B6214A1368EE
:1007D000002BFCD0BFF35F8F1F4B05001F4AED1AA3
:1007E0006D416A43120D1E4D8900AE6852B27658B3
:1007F000A6421CD00621595691421CD012215956AE
:10080000914222D01E215956914220D02A21595678
:100810000324914210D0134B19781A708171BFF3E1
:100820005F8F00220B4B1A608CF3108870BDAB6891
:100830000D4C5C50EFE700246100091989005B183A
:10084000FF21997109499980E5E70124F4E7022421
:10085000F2E7C046240100D04C110020AAAA0000F3
:1008600000ED00E009210020C101001001BDFFFFE3
:1008700010B5084B084C82B00100009300220523FC
:100880002000FFF7B3FD002801DB1F23181A02B078
:1008900010BDC046886C00100D210020024B9C4604
:1008A00061448900016070474000003470B5114C0C
:1008B000114DAC420FD2FF262368002B0CD0FFF75E
:1008C000E3FD01002000FFF7E9FFA680BFF35F8F83
:1008D0000834AC42F0D370BDFFF7D6FD0100200014
:1008E000FFF7DCFF2671BFF35F8F0834AC42E3D320
:1008F000F1E7C046081200201012002010B50400D5
:10090000FFF7C2FD01002000FFF7C8FFFF2323719E
:10091000BFF35F8F10BDC04610B504000120FFF784
:10092000BFFD034BC3189B002360BFF35F8F10BD57
:1009300040000034034B9C46614489000160BFF3D2
:100940005F8F7047400000340A4B1968EFF3108046
:1009500072B60A68002AFCD0BFF35F8F1B68BFF332
:100960005F8F00221A6080F3108840BF00200021B2
:100970007047C046E8200020F0B5DE4657464E4698
:100980004546E0B583B0EFF3058203231340B54A33
:10099000990052580091904601229A409346B24BDA
:1009A0001A60B24B01935B46B14843634346082249
:1009B0009B5E9946002B3ADA43469B881BB2002B7C
:1009C00000DB9DE043469B79002B00D0E1E04346ED
:1009D00008241C5F002C20DB43465A6963001B1966
:1009E000DB00D3189D68DC686B1C00D103E1A048D4
:1009F000009984466144826A0B69AE1A9B1A9E4232
:100A000013D35A46036A1A420FD0994800F0AAFB42
:100A10008C4202DCC7D18542C5D940BF03B0F0BCCF
:100A2000BB46B246A946A046F0BD0D61EDE7424681
:100A300052695B0092464B44DB009A4453469E68E1
:100A4000DF6800F08FFB8F42B6DC00D1F8E0002FAA
:100A500000DAD9E05246534654691B69019A934221
:100A600000D1CCE0414652460820085E528800047E
:100A700021001043984704000D0023002B4300D1B0
:100A8000C2E0002D00DBDFE030003900001BA9418F
:100A900053469860D96000229A5E002A00DA8BE7FC
:100AA00043465D6953009C18E4002C19A768E4686C
:100AB0008C4200DD80E702D1874200D97CE74646C0
:100AC000328108360DE08C4200D1C6E01E000023C2
:100AD000F25E002A0ADB53009C18E4002C19A76878
:100AE000E4689B18DB00EB188C42ECDD53461A805F
:100AF0004B46338043469B881BB2002B00DA61E7EC
:100B000043461A69EFF3108172B61368002BFCD0CC
:100B1000BFF35F8F43469E88012342465B4293802A
:100B200036B21369BFF35F8F00221A6081F3108819
:100B3000002E00DA46E743465D69083342469C468C
:100B40007700BF19FF00EF19BB686046984608237D
:100B5000D15E9246FC68002907DA0EE0A24246D038
:100B600018000023C15E002906DB4B005B18DB0088
:100B7000EB18DA68A242F1DD524606800023FE5EE1
:100B80003980002EDCDA904643469B79002B00D159
:100B90001DE7002342469371434646460821595EAD
:100BA00008364B1C00D138E747468946556902E0B4
:100BB00006004B1C18D04B005B18DB00E8180A003D
:100BC0008C46E95E43881BB2002BF1DA01235B42BD
:100BD000DC178360C4604A4503D031803B890380C1
:100BE0003A81E1464B1CE6D1B8464C46F2E69A689B
:100BF0004245B5D9C0E7631C00D0F8E605E7200000
:100C000023699847002825D1534642461B88138103
:100C10001269EFF3108372B611680029FCD0BFF39C
:100C20005F8F4246514652880A804246494651806B
:100C30001269BFF35F8F0021116083F31088BBE658
:100C4000864200D803E7B7E6094800F08BFA00199E
:100C500069411DE7656824680FE7874200D835E7DA
:100C600044E7C046CC2000203C70054079090010C4
:100C70000040054070B52E4C2569002D04D00A2196
:100C80002C48FFF70BFE70BD2B4E0321300000F007
:100C90005FFAE660FFF7F8FB284B03229C46D0235F
:100CA00022701B061B6801216370254B6044A36002
:100CB0000F23800020610220638063694942A18084
:100CC00019800231198647311D83585218315A5202
:100CD00075325C399952183201319952183201310A
:100CE0009952183201319952083518329D52023109
:100CF00018329952183201319952183201319952F1
:100D00001832013199521832013199521832013199
:100D100099520C4B0C49DC6001303562FFF72AFC1C
:100D200001210320FFF7EEFB084B1D60A7E7C0463B
:100D300094110020E82000200040054040000034CD
:100D4000FFFF1000CC20002079090010386005401A
:100D50000048704794110020F8B51F0008AB1B78BD
:100D600004001600002B08D100F004FA32003B000A
:100D7000121A8B41002B00DA53E02269EFF3108046
:100D800072B61368002BFCD0BFF35F8F0223E15EC5
:100D900063694A005218D2009B18002937DB1A8871
:100DA00062802269BFF35F8F0025156080F3108891
:100DB000069A9E60DF601A61079A5A615A8801326A
:100DC0005204520C101C002A1FD082B25880080412
:100DD00010432669EFF3108772B63268002AFCD000
:100DE000BFF35F8FA2881A80A1802369BFF35F8F52
:100DF00000221A6087F310880B4923788C46013251
:100E00009A40E36863441A60F8BD0120DDE7236976
:100E1000BFF35F8F00221A6080F3108801204042E8
:100E2000F2E70020F0E7C0463C20000070B501006A
:100E30000469EFF3108C72B620680028FCD0BFF371
:100E40005F8F02200D5E4C6968004019C0002418B5
:100E5000002D37DB208848800869BFF35F8F0026AC
:100E600006608CF31088E360638804980133206186
:100E70005B0405985B0CA26060611A1C002B1FD0FC
:100E800093B22804628018430A69EFF3108C72B69B
:100E90001368002BFCD0BFF35F8F8B8823808D807D
:100EA0000B69BFF35F8F00221A608CF310880B78F8
:100EB00001329A40CB6808498C4663441A6070BD81
:100EC0000122DDE70B69BFF35F8F00221A608CF30C
:100ED000108801204042F2E73C20000010B5438911
:100EE0000A1493421ADD53009B184269DB00D318A1
:100EF0000469EFF3108C72B62268002AFCD0BFF3AD
:100F00005F8F5A88090494B2090C8A4208D0036999
:100F1000BFF35F8F00221A608CF31088002010BD91
:100F20008022120214435C80012302698371BFF3A3
:100F30005F8F002111608CF31088044902788C4681
:100F40009340C268012062441360E8E73C2000003F
:100F500040787047F0B5C64600B582B0040000F096
:100F600009F9FA2206000F00002320000021920058
:100F700001F080FA8023801979411B0604000D00DE
:100F8000994202D301242F4D644206267642F71778
:100F900036196F41AF4214D811D000F0EBF832008F
:100FA0003B00121A8B41002B15DC002B46D0200091
:100FB000290000F0E9F802B080BCB846F0BDA642B6
:100FC000EBD90026002700F0D5F832003B00121ABA
:100FD0008B41002BE9DD00F0CDF832003B00121A06
:100FE0008B41002B0ADB00230193174B3200009347
:100FF00016483B00FFF71AFF0028D8DB0023390012
:10100000B0469C46124A1348536A994204D8966ADD
:10101000B045CCD99942CAD10668EFF3108772B6B1
:101020003368002BFCD0BFF35F8F0368BFF35F8F83
:1010300066461E6087F3108820BFE5E7002AB6D019
:10104000C9E7C046FFFFFF7F490900109411002047
:1010500000400540E8200020F0B5D6464F46464601
:10106000C0B504000D0082B0EFF305878946002F5C
:101070000ED0344900204B6AAB4203D38A6A013058
:10108000A24226D302B0E0BCBA46B146A846F0BDA3
:101090002D4B9846DB689A46434650461E7800F032
:1010A00061F80B00514602000436B600715820006A
:1010B0008E1A2900801A99418F4211DC0ED020BF70
:1010C000204A0020536A4B45DCD3926A0130A24289
:1010D000D8D25B1B5A1E9341D8B2D3E78642EED9D1
:1010E00000F048F822002B00121A8B41002B1ADB6B
:1010F00000230193154B2200009340462B00FFF77D
:1011000095FE011E0FDD0F4B5A6A4A4517D39B6AA5
:10111000A34212D34046FFF7E1FE0A4A0020536A79
:101120004B45AFD3D1E7074A0020536A4B45A9D3BB
:10113000926A0120A242A5D2CBE74A45EAD120BF5C
:10114000E8E7C0460040054094110020490900101E
:1011500010B5024A0248FFF727F910BDA46C001031
:10116000581C00200300416A0A00986A596A8A42A2
:10117000FAD17047034B596A0A00986A596A91423A
:10118000FAD1704700400540064A536A9942FCD89C
:1011900007D1044B02E05A6A914202D19A6A824214
:1011A000F9D3704700400540F8B5DE464E46574635
:1011B0004546E0B58B4605000A991800160000F078
:1011C0003DFB0A9B6C001F02324B64199C46A40035
:1011D0006444636881469F4200D967602B1FDBB27D
:1011E0009846012B30D9C02380229B01E3181201BD
:1011F0001A60294BAD0059599A4600291BD1730139
:10120000E026226853401E40802342465B01E318DB
:101210001E60012A30D9802380229B01E31812012D
:101220001A6053464A4667605A51F0BCBB46B24604
:10123000A946A046F8BD586900F000FB0130430004
:101240001B18033BFDD2DAE75B46012BCBD1C02351
:1012500003229B01E3181A60023AA3681A42FCD0E9
:101260007301E0262268AD0053401E4080230A4AE5
:101270005B019246E3181E605A46216851400322E2
:101280000A401A6001225B469A40A3681A42FCD0C9
:10129000C1E7C046008000405C1C0020F0B5464617
:1012A0004F46D646C0B51F00344B44009C46241818
:1012B000A4006444636888461600FF2B02D880238C
:1012C0005B006360031FDBB29A46012B30D9C02359
:1012D00080229B01E31812011A60294B850059599D
:1012E000994600291BD17301E026226853401E4015
:1012F000802352465B01E3181E60012A30D9802307
:1013000080229B01E31812011A6080235B00636056
:101310004B465F51E0BCBA46B146A846F0BD58699D
:1013200000F08CFA013043001B18033BFDD2DAE7D2
:101330004346012BCBD1C02303229B01E3181A6043
:10134000023AA3681A42FCD07301E02622688500A5
:1013500053401E4080230A4A5B019146E3181E60F9
:1013600042462168514003220A401A600123424646
:101370009340A2681342FCD0C1E7C0460080004001
:101380005C1C0020014B8000C05870475C1C002092
:10139000F8B5040021481E0017000D0000F04EFAB9
:1013A0000100380000F04AFA069B36041B031E4376
:1013B0002368002B20DB1A4B1A49E3185A1E93416D
:1013C0008022920194465B421B0B174A1B03634425
:1013D0001360164A13601F000A689743FBD1144B31
:1013E0002560E2182123A06013602368002BFCDA3B
:1013F0000823E6601360F8BD3F2322681340AB4228
:10140000D9D1A3681B051B0D8342D4D1EE22E3681A
:10141000D2021340B342CED1EDE7C046001BB70065
:101420000040FDBF08C0004000E0004000F0004068
:101430000430000010B580241C4BE4051C6000281B
:101440001AD001231A4C18431A4BDC611A4C444041
:101450001C62596298628021144BC90519601748B3
:1014600017490860E021C9041960002A07D18022C9
:10147000144B12061A6010BD0E4BD861EBE75301F6
:101480009B1A9B009A18802312015B049A4209D28E
:1014900013000D490B60074B5A608022094BD2059F
:1014A0001A60E8E7094B1A00F3E7C04600B00540B0
:1014B000D3C007B0008005402D3FF84FFCFF01006E
:1014C0000820014000A00540BC200020FFFFFF00D5
:1014D0008023024A9B000B43D36270470080054083
:1014E000142310B50100188804331B88984710BDD9
:1014F000162310B50100188802331B88984710BDC9
:10150000F8B54746CE4680B50F1E19D0142399462C
:10151000043304000025012698464B4618884346AC
:1015200021681B88984701C4431E984101354042F9
:101530000640AF42F1D13000C0BCB946B046F8BD5C
:101540000126F8E7142370B50400188804331B88BB
:101550000D000549984703000020002C01DB0130F5
:10156000A04029009847C04655420000AA23064AD9
:101570001B0113608D235B00D3600449044B196089
:101580005368002BFCDA70470040024000B0FA00BC
:10159000006002407047C04610B50148FEF7ECFEFF
:1015A000C86C001070B5074D074EB54209D2002433
:1015B000013E761BB60808CD984723000134B3429C
:1015C000F9D170BDF86B0010346C0010054B064A61
:1015D00006491A60064A074B1A6010000B689843C8
:1015E000FBD1704700E00040BFCDFBFE08C00040CB
:1015F000FE7F3C0000F00040044BDB6C002B03D16D
:101600008022034BD2021A607047C046000011507E
:101610004C201150044A054B1A60054A1368DB013F
:101620008033FBD17047C046FFFFFF0100F0004050
:1016300008C000404022034B9A675A671A67DA666F
:101640007047C04600F0014010B5FEF73BFF10BDEB
:10165000F8B52749274C284D641AA6103200302EC1
:1016600000D930222800920000F074FFBC2C3BD837
:1016700030202F232C196407204A801BE40F9B1B6A
:10168000052B16D93700002C02D0B300771CEA5086
:10169000001B33199B004108EB18C900C9181A60D8
:1016A0005A6008339942FAD1012303421CD098436F
:1016B000C619B300EA50731C2F2E15D09B00EA50B8
:1016C000B31C2E2E10D09B00EA50F31C2D2E0BD0F5
:1016D0009B00EA50331D2C2E06D09B00EA50731D50
:1016E0002B2E01D09B00EA50054B9D60F8BDC046F3
:1016F00000010010C001001000000020C101001016
:1017000000ED00E0002310B5294C82B0A367FFF77D
:101710002DFF0122274B1A60636C012BFCD10322A1
:10172000254B1A60224A936B012BFCD101330093A5
:101730000121224A22480433FFF72AFE0523012112
:101740000093204A2048FFF723FE002202210420B4
:101750001E4BFFF7A3FD0022012105201C4BFFF7C4
:101760009DFD0022002107201A4BFFF797FD002264
:1017700000210820174BFFF791FD8023DB00009329
:10178000002200210920134BFFF70EFD0022104B11
:1017900000210620FFF782FD0420FFF7F3FD0E492C
:1017A00000F04CF801000020FFF792FE02B010BDDF
:1017B000008000403CB0004030B00040002F68592D
:1017C00000800240008C864700C00240001BB7002A
:1017D00040597307006CDC0240420F0001480421AD
:1017E000014B1847B011002001150010124A936FE9
:1017F0009B0815D29066D166002905D0FFE7FFE768
:10180000FFE7516F106F704704B580210906C217BA
:101810005140002800D0C84305F0AEF9002104BDB6
:10182000F0B5146E556E576F166FFFF7E3FF146631
:10183000556657671667F0BD000000D0114A936FD8
:101840009B0813D210665166002905D0FFE7FFE719
:10185000FFE7516F106F704704B5002801D00020DA
:10186000C04305F089F9002104BDC046F0B5146EEF
:10187000556E576F166FFFF7E5FF1466556657678D
:101880001667F0BD000000D094464A4A926F920855
:10189000624601D228E0C046F0B5464E346E756E01
:1018A000776F366F00F020F89446424A146655660A
:1018B000576716676246F0BD94463E4A926F92089B
:1018C000624601D254E0C046F0B53A4E346E756EB1
:1018D000776F366F00F04CF89446364A14665566BA
:1018E000576716676246F0BD002B24DB11D0002934
:1018F0003EDA00B5C943404200D1013100F038F86A
:10190000C943404200D10131DB43524200D101338F
:1019100000BD002AEBD1002801D1002905D000200C
:10192000C90FC90701D1C043410800B505F014F93A
:101930000022002300BD00B500290ADBDB43524230
:1019400000D1013300F014F8C943404200D1013105
:1019500000BDC943404200D10131DB43524200D1B6
:10196000013300F005F8DB43524200D1013300BDE2
:10197000002923D1002B18D1002A0CD0BC460D4FD2
:1019800038667A6600210023FFE7FFE7FFE77A6FFA
:10199000386F67467047002801D00748010000B53E
:1019A00005F0DAF80022002300BD02000B00002041
:1019B00000217047000000D0FFFFFFFF002B00D088
:1019C000BFE0130C28D1002AE7D080B4114F39664C
:1019D0007A66FFE7FFE730B4040C7B6F396F1B04B6
:1019E00023433B667A66FFE7FFE7FFE7C04684B222
:1019F0007B6F3D6F1B0423433B667A66FFE7FFE77F
:101A0000C04600232C042D0C7A6F386F00196941F1
:101A1000B0BC7047000000D0F0B594460025140E0D
:101A200001D112020835140F01D112010435940FAF
:101A300001D192000235D40F01D152000135D40BEF
:101A40000134254F7C66254C3C660E0C93B2FFE7B3
:101A5000FFE7FFE73C6F6643360C7703BE467343F0
:101A6000DF0B5B04C01AB941130C7343DB18C91AAE
:101A7000CE086643360CB64493B273431F0F1B0166
:101A8000C01AB941130C73431F0B1B05C01AB9418F
:101A9000860D8F023E436643360C092D24DB520A25
:101AA0007243801A7703460A6643360C16235B1B83
:101AB000DE40DF40BF1964466643821B7046043532
:101AC00006330100D940A840C01900D30131A24219
:101AD00006D20023F0BD0000000000D0FFFFFFFF92
:101AE000121B0130F3D3F1E709277F1BFE40644648
:101AF000A2B27243801A00D20139220C7243130C35
:101B00001204821A99410B00704604351337010004
:101B1000F940A840801900D30131002B02D1A24224
:101B20000AD2F0BD013000D30131121BFAD2013BC1
:101B3000F8D1A24200D2F0BD013000D30131121B16
:101B4000F7E7F0B51C0C00D080E00CB400251C0AAF
:101B500004D11B02160E3343120208351C0B04D1AC
:101B60001B01160F3343120104359C0B04D19B005B
:101B7000960F334392000235DC0B02D192185B4181
:101B800001351C00971864410134464F7C66464C71
:101B90003C660E0CFFE7FFE7FFE7C0463C6F66437D
:101BA000360C7703BE4697B27743C01B00D201398B
:101BB000C01B00D201399FB27743C91BC91B170C48
:101BC00077437E04FF0B801BB941CE086643360C79
:101BD0000C2D33DBB644120B1F053A431B0B97B297
:101BE0007743C01B00D201399FB27743C91B170C42
:101BF00077433E043F0C801BB941860D8F023E4364
:101C0000664329277F1BFE400C3D7746AF40BF1936
:101C100030BCA2B2ABB272437343801A9941220C1A
:101C20007243130C1204801A994102000B00013711
:101C3000001BA941F9D2781E0021F0BD0C277F1BA3
:101C4000FE4077467F0BAF40FF19E0E700245D1CA4
:101C500007D0144F7D663966FFE7FFE7FFE7FFE730
:101C60003C6F95B29EB265436643401BB141150C73
:101C70001E0C6543664336042F0C3E432D04401B67
:101C8000B141994204D202000B0020000021F0BDB6
:101C900001D19042F7D3801A994101349942F2D38D
:101CA000F6E70000000000D0FFFFFFFF4840414082
:101CB000484018B41B4B5B68FC46019308BD04DF29
:101CC000471F001018B4174B1B68FC46019308BD52
:101CD00000DF511F00109446134A926F920809D2F8
:101CE000624618B40F4BDB68FC46019308BD0CDF5D
:101CF000092200100C4AF0B5146E556E576F166F1E
:101D00006246FFF7EEFF084A146655665767166786
:101D1000F0BD18B4034B9B68FC46019308BD08DF77
:101D2000AD20001098130020000000D0FFB55040F7
:101D30004240504059404B40594000E0FFB5154FDC
:101D40004C00640D03D0BC4204D10C0314D8002015
:101D5000090D09055C00640D03D0BC4204D11C03CD
:101D60000AD800221B0D1B0501264B4009D44B400D
:101D700003D58B4200D18242FFBD9942FCD19042F3
:101D8000FFBD0B43DB1803431343F5D0C943491888
:101D9000FFBD0000FF07000000B5FFF7CFFF804147
:101DA00000BDC04600B5FFF7C1FF01D9002000BD4E
:101DB000012000BD00B5FFF7B9FF804100BD012043
:101DC00040054A00121804D85A00121801D8002001
:101DD00070470120704700000021002805D170479E
:101DE000C1174840401AFAD0C90713B5064B1B6803
:101DF00098470CBC441CA2401005120B0349091B58
:101E000009051943114310BDE42000201F04000000
:101E100010B54C00620D8023D218DB00D21A5B058E
:101E20007E2A10DD9E3A13DACC17090349081943BC
:101E30005242D140640001341532202A05DAD040E4
:101E40000843604310BD002010BD0846604310BD2C
:101E5000C80FC018013810BD18B4044B5B6AFC46AB
:101E6000019308BD24DFB92300100000981300205F
:101E7000132370B51D78012D19D014DD1F48FFF70D
:101E800037FB06001E48FFF733FB1E4C8022310053
:101E9000200000F05FFB022D2DD01B48FFF720FB38
:101EA0001A4B186070BD1A4B164CA364F5E7184B1B
:101EB000144C23606360A360E36023616361A361EA
:101EC000E36123626362A362E36223636363A363E8
:101ED000E36323646364A364E36423656365A365C8
:101EE000E36523666366A366E36623676367A367A8
:101EF000E367A364D1E7064BA364CEE75344000035
:101F000053460000981300204C330000E4200020CA
:101F1000151F001007B5604601880A0A0230DF2A43
:101F2000FAD1C9B2820804D3028840880004104361
:101F300000E00068014A5050039007BD981300204C
:101F40000FB403BC0CBCF0B50124E407634000E00F
:101F5000F0B50C0DCF0F661E3605891B640503D343
:101F6000C943404200D30131640D03D0661CF60A18
:101F700007D0E41B00207F00791C89078912803C70
:101F800024031D0DDF0F6E1E36059B1B6D0503D34D
:101F9000DB43524200D301336D0D03D06E1CF60AB1
:101FA00007D0ED1B00227F007B1C9B079B12803D0E
:101FB0002D032F1B661B58D4A446202E46DA20374B
:101FC0001400BC401D00BD40F24033412A4380183C
:101FD0005941CB0F05D0C943C04300226442504150
:101FE000514162464D0D28D10D0D07D100281FD05B
:101FF000241940414941013A0D0DF9D0640006D33E
:10200000013000D30131002C01D140084000013AD9
:102010000BD4941CE40A04D112051144DB071944C3
:10202000F0BDD907204B194300E0D9070020F0BDCF
:102030000029DDD1002CDBD1F0BD0132C6074008FC
:10204000CD0728434908002EE1D0D9E73C2E29DAF4
:10205000203E40371400BC4000D00124F24014431D
:102060001A00BB401C43D317ACE7AC46202F08DA5C
:1020700020360400B4400D00B540F84039412843F3
:10208000A5E73C2F0CDA203F40360400B44000D0D6
:102090000124F84004430800B1400C43C117EAE7AB
:1020A00010001900002494E70000F07FF0B50C0D3B
:1020B000661E3605891BE60A6405640D02D0651CA0
:1020C000ED0A04D0002001210905803C2403A44628
:1020D0001C0D671E3F05DB1BE70A6405640D02D07B
:1020E000651CED0A04D0002201231B05803C24035B
:1020F0007740644497B484B296B27443070C7E432D
:10210000150C6F4380B26843361802D301200004D7
:102110003F183004350C00197D41844688B29AB2CC
:1021200050430C0C62431F0C7C438EB27E439219C9
:1021300002D301263604A4191604170C3618674179
:1021400001BC81B29AB25143040C62431B0C5C4344
:1021500080B25843121802D301200004241810043E
:10216000130C401863412D185E410020474106BC06
:1021700088B293B258430C0C6343120C544389B297
:1021800051435B1802D301210904641819041A0C85
:10219000091862416D1856410020474118BCF902E8
:1021A000720D1143F0026A0D1043ED020A0D03D1C6
:1021B0006D1940414941013B124E9B1B7600B342D1
:1021C0000ED26D0007D301300026714166463543BB
:1021D00001D1400840001B05C918E4072144F0BDA7
:1021E0000BDA013306D1013004D101314F0D01D09A
:1021F0004908F2E7E1070020F0BD01363105002073
:10220000EBE70000FF030000F0B51C0D671E3F0563
:10221000DB1BE70A6405640D02D0661CF60A04D0D5
:10222000002201231B05803C2403D0252D06002617
:10223000F6432E661E096E66CE0FF619B4464900A7
:102240004F0D02D07E1CF60A03D000200021403F33
:102250003F033E1BB600B444013F7F05C91B49083C
:102260002E6F013676089C02950D25437543ED13BC
:102270007543AD1301356D10F603761B0CB4CC021B
:10228000450D2C43A2B2B3B25A43270C7B43350C05
:102290006F43A4B26C431B1902D3012424043F19D9
:1022A0001C041D0CA4187D4124196D41009A91B2A3
:1022B000ACB26143170C7C432B0C5F4392B25A4380
:1022C000A41802D301221204BF182204230C5218AE
:1022D0007B41019C6C431B19520ED9010A434401F6
:1022E000A01A81B2B2B2514303145A43360C73435D
:1022F00087B27743D617D21900277E4136049B193F
:102300001704160C7F185E417316ED18F3010026B2
:1023100080337541A90F06D16400690AE8055B0A9C
:10232000184309D22FE00422944480337541A90A4E
:10233000A8059B0A184326D3404149412404009A2A
:10234000019B0D005543641B4343E41A95B286B2CA
:102350007543170C7E43030C5F4392B25A43B61881
:1023600002D301221204BF183204330C52197B41EC
:1023700052429C41002C02D40022013051414008BD
:10238000CA071043490802B06246D7079210084BAB
:10239000D218084B9A4203D212058918C919F0BD08
:1023A0000020002A01DC3900F0BD01331905F5E7F2
:1023B000FD030000FE070000002200B5203200F0FF
:1023C00004F8080000BD000000220B150AD410B567
:1023D000944600F031F81414013400DA0021CB17D0
:1023E000144C20470020002170476244343A0CD43A
:1023F0000C2A07DA04009140904052422032D44027
:10240000214310BDD843D94310BD203207D40C4618
:102410009440524220321141D040204310BD080068
:10242000C917203203D452422032104110BD180087
:10243000190010BDEB2300100A0DCC0F531E1B0515
:10244000C91A520503D3C943404200D30131520D8A
:1024500003D0531CDB0A07D0121B00206400611C50
:1024600089078912803A1203014BD21A7047000083
:10247000FF03000051434343C9188C46110C83B23B
:102480004B4310B4040C614392B280B25043624398
:102490001C041B0C001910BC59411304120CC01869
:1024A0005141614470470000132310B512481C7855
:1024B000FFF71EF80100012C0AD003DD80220F482F
:1024C00000F048F80E48FFF70BF80E4B186010BDEF
:1024D0000A4C5422200000F03DF80B4B6365A365C5
:1024E000E36523666366A366E36623676367A367A2
:1024F000E3672362E361E5E7534600009814002098
:102500004C330000E42000200D25001007B5604684
:1025100001880A0A0230DF2AFAD1C9B2820804D33C
:10252000028840880004104300E00068014A5050CF
:10253000039007BD9814002001480421014B18475F
:10254000C011002001150010014B1B681847000046
:10255000C0110020014B5B6818470000C01100202B
:102560007047C046F8B55746DE464E464546E0B58C
:1025700099460A9B07009A460D9B884693460B9CFA
:102580009B073BD10C9B9C423DD21E1B0B9415001C
:102590000C005E442A004B46013521002020B8473C
:1025A000B542F7D1A0460B9C002C20D045463619E9
:1025B0005346321B013C185D29004B46B847002C9E
:1025C000F6D12B00350098460D9B9B070FD55B4637
:1025D000EC1A0C9BA3420AD9464698462A004B4661
:1025E000310020200134B84701354445F6D3280096
:1025F000F0BCBB46B246A946A046F8BD1600150081
:10260000002CD3D1E0E716001500002CCED1EEE768
:10261000F0B54F464646D646C0B584B098460EAB98
:102620001B7894469946129B0D9C109F119E9A0709
:1026300026D4002E51D1BC4222D201221A40924609
:10264000202C00D1F8E00C9A551E302202E0202CFC
:1026500000D176E001342A55A742F8D85246002A24
:1026600000D10AE1B4420BD20C9A551E3022202C24
:1026700002D16DE0202C52D001342A55B442F9D158
:10268000DA0610D4202C1DD103930C9B62460093D4
:10269000029643460194FFF765FF04B0E0BCBA46DA
:1026A000B146A846F0BD5A0541D4002C3BD10F9A43
:1026B000102A00D1ABE0022A00D1BBE030220C9CF2
:1026C000227001244A46002A59D15A0700D496E0C4
:1026D0002B220C9D2A550134D6E7012215001D40FE
:1026E000AA461A4250D04A46002A79D10C321A42E0
:1026F00076D1BC42B6D2202CA5D1202E28D82024B9
:10270000DA06C1D55A0505D4202F00D1BCE0202E11
:1027100000D1ABE00F9A102AB6D12024B4E7DA0634
:10272000B2D55A0545D4A7425CD0B4425AD00F9ACC
:10273000102A42D0022A4AD0202CA5D022000134EF
:1027400059E05246002A00D185E0202E00D882E0D0
:102750002024DA0698D55A05DCD4202F00D193E046
:10276000202ED7D10F9A102A00D1A1E0022A00D141
:102770009AE030220C9CE2772026340084E72D2258
:102780000C9D2A5501347FE7BC4200D378E7202C0A
:1027900000D058E7DA06C0D55A05BED40F9A202FCC
:1027A00000D189E0202EB8D1102A00D180E00F9A04
:1027B000DCE70F9A102A00D066E79A0630D5202C65
:1027C000ABD058250C9A121915700134B4E7202C9F
:1027D00000D159E72200013462250C9FBD54ABE7BC
:1027E000013E86E7621E012C00D160E70F9D102D8F
:1027F00027D0022DF0D030250C9FBD5442E71A0798
:1028000000D441E720220C9D2A5501343CE79A066A
:102810000ED478220C9C227030226270022451E780
:10282000202C00D179E778220C9D2A55013483E7CA
:102830005822EFE76222EDE7002A00D05FE7A9E720
:102840001F220C9FA51EBA4655449F0612D558223A
:10285000013C2A7072E7DA0600D415E75A0500D564
:1028600058E7202F19D0202E00D060E720261F2205
:102870003400BBE778272F70BDE7DA0600D401E704
:102880005A0500D44FE752E70F9A102AD8D0022AEF
:1028900006D030220C9DEA77F6E620241F22A5E719
:1028A0000C9D6032EA77EFE60C9C6032E27763E7DA
:1028B00020261F223400C4E7102A06D0022A07D09F
:1028C00030220C9CE2773C00DEE63C001F22B8E799
:1028D0000C9C6032E2773C00D6E6C04610B500287A
:1028E00000D110BD01F040FCFBE7C0460B0010B565
:1028F000002802D049681B68984710BDF0B55746BC
:102900004E464546DE46E0B59BB0249E259F814657
:102910008A4698460A923B00320030003900FFF7A1
:102920004EFA002800D0C0E00122300039007D4B73
:102930005242FFF73FFA002800D0B6E001223000F3
:102940003900794B5242FFF727FA002800D0ACE05B
:102950000022002330003900FFF71EFA002800D0C3
:102960001BE208960997089809998023289ADB00AA
:102970001A400F928022289C1201144022000B94CE
:10298000289C8B460C901C4200D0A5E00B00034312
:1029900000D0CDE0002A00D020E2220006332693AA
:1029A00002231A400C92289A134200D023E2279B5C
:1029B000042B00D22FE2043B0B9300239B460433ED
:1029C0000E930022002330003900FFF7E5F90028BC
:1029D00000D0AFE1554B289A134004930B9B03930F
:1029E000269B0293089B099C009301945146434601
:1029F0000A9A484600F064FA02002020289B00252D
:102A0000034059424B415B421840531C08935146C6
:102A100043464530C8475A46D317D418D70F01222A
:102A2000524294465C400E9B63449B4601E0202D3D
:102A300013D00AAA94461F23200063440A210135BB
:102A40005E19FEF7FBFE3031317020000A21FEF7DF
:102A5000F5FE26000400092EE9D8052306935B46FF
:102A60000593002304930A33039312AB009351465A
:102A700043464846089A02970195FFF7C9FD0C9B0B
:102A80000400002B20D00A9BC51A279BAB421BD900
:102A90004E4657462200434639002020B047279B28
:102AA00001350134AB42F5D80EE0289B0096019722
:102AB0000493279B0393269B029343465146484623
:102AC0000A9A00F0FDF9040020001BB0F0BCBB46E0
:102AD000B246A946A046F0BD01432BD10B9B220074
:102AE000002B00D15CE700239B46269B00245B451E
:102AF00000DDA6E10022002330003900FFF74CF989
:102B0000002800D051E1289B084A02941A408023F3
:102B1000DB0013430493279B0393089B099C0093BA
:102B20000194CAE7FFFFEF7FFFFFEFFFFFF7FFFF13
:102B3000062326935B465800C94B400D9C466044D3
:102B4000FFF74EF9C74AC84BFFF7E3F8C74AC84B2F
:102B5000FFF7B8F85B461B031A0BC64B0400134380
:102B60000D000C9819000022C34BFFF7A2F8C34ACE
:102B7000C34BFFF7CEF802000B0020002900FFF73F
:102B8000A1F8FFF745F98346FFF72AF9BD4ABE4B86
:102B900004000D00FFF7BDF80022BC4BFFF792F8D0
:102BA000FFF736F9BA4ABB4B29000E902000FFF719
:102BB000B0F804000E980D00FFF712F9B64AB74BB3
:102BC000FFF7A7F802000B0020002900FFF771F8BB
:102BD00004000D0002000B000C940D95FFF799F80E
:102BE00004000D000C980D9902000B00FFF76AF825
:102BF000002210901191AA4B20002900FFF76BF8DA
:102C00000022A84BFFF75EF802000B00200029000D
:102C1000FFF761F80022A44BFFF754F802000B0005
:102C200020002900FFF757F80C9A0D9B0D0080211A
:102C30000400C9050020FFF73CF802000B0020004B
:102C40002900FFF73FF802000B0010981199FFF7D9
:102C500042F80022874BFFF735F8944B0E9C9C46B8
:102C6000644423050022FFF754F804000D0002001D
:102C70000B0008980999FFF78FF800280BD0012363
:102C80005B429C46200029000022864BE344FFF76C
:102C900022F804000D005A46633223002900C62A98
:102CA0005CD80222289810400B9A0C90002A00D180
:102CB00096E004220E920B4300D116E7089809997A
:102CC0007B4A7C4BFFF76EF8002808D008980999DA
:102CD0000022794BFFF760F8002800D005E7269B1B
:102CE000002B4ED00F9B002B4BD0269B0E9A013B06
:102CF0002693279B934200D885E00C9B002B00D1A4
:102D00009BE002230C9300230B935B46002B00D126
:102D100057E60898099922002B00FEF7DCFF0022F5
:102D200008900991002330003900FFF735F800289A
:102D300000D14FE6089C099D8020000629008446AA
:102D4000289A5E4B6144134004930B9B220003932B
:102D5000269B02930B000092019347E602222898DB
:102D6000104002000C900B98002834D1279B052BB3
:102D70005BD9002A69D1279B053B0B9305230E9352
:102D8000C7E7279B0E9A93423DD90C9B002B54D04A
:102D900000230B9302330C93B7E780231B069C465A
:102DA000BC44634608960993DDE58020289B434A8E
:102DB00000061A40802384460294089C099D29003D
:102DC000DB0013430493279B6144220003930B0011
:102DD0000092019371E605220E926CE7052489E6C4
:102DE000279B042B19D9002834D1279B043B0B9334
:102DF00004230E9389E700239B460B9302330C9325
:102E000002330E93DDE50C9B5A1E93415B000C933D
:102E100000230B9379E70423CDE503005A1E934169
:102E20005B000C9304230E936FE713005A1E93412B
:102E30005B000C9305230E936BE7279B9B1A0B9368
:102E400063E75A469C1A013C54E602230C93033371
:102E50000E935EE704230E93023B0C9355E7C046A6
:102E600001FCFFFFFB799F501344D33FB3C8608B35
:102E7000288AC63F0000F03F0000F83F61436F63BF
:102E8000A787D23F71A379094F930A400000E03F22
:102E90001655B5BBB16B0240EF39FAFE422EE63F44
:102EA00000002C400000244000001840FF030000F8
:102EB0002D431CEBE2361A3F80842E41FFF7FFFFC3
:102EC000F0B54546DE464E465746E0B595B08B46D2
:102ED000904699461E9A1F9B0A9019001000209D4B
:102EE000FEF76DFF002800D0A4E11E981F99012273
:102EF000C74B5242FEF750FF002800D00DE11E984C
:102F00001F990122C34B5242FEF754FF002800D004
:102F1000AAE01E981F990022BF4BFEF74BFF002826
:102F200000D08BE01E981F990022BC4BFEF734FFA7
:102F3000002800D082E01E981F9900220023FEF78F
:102F40002BFF002800D0A4E000230B938023229CB9
:102F5000229ADB001C401A4200D1ACE0092D00D8B7
:102F60008DE106AA94462C00172700233022093C45
:102F700067440133FA54E91A202B00D12AE1A34215
:102F8000F7D100228A46A44B069207931E981F99F8
:102F9000FEF73EFF0500FEF723FF02000B001E9820
:102FA0001F99FEF786FE069A079BFEF7B2FE089071
:102FB0000991FEF751FF0600FEF70EFF02000B001D
:102FC00008980999FEF775FE0022954B0890099123
:102FD000FEF7F0FE002800D1C6E001363000FEF713
:102FE000FBFE069A079BFEF7DDFE002801D00026B7
:102FF00001355346002B00D197E006AB17279C46BE
:1030000006956744554612E001343B199A460A2159
:103010003000FEF713FC53463031197030000A219E
:10302000013DFEF70BFC092E00D8BAE00600202C6B
:10303000EAD1069D0CAB20249A4656E0229B4246DC
:103040000493219B594603930A981E9B1F9C02954B
:10305000009301944B46FFF751FC15B0F0BCBB4602
:10306000B246A946A046F0BD229B5B070ED40322C0
:103070006C4B22990192039121990291009342464F
:103080004B4659460A98FFF76DFAE6E70422664B6D
:10309000EFE71E9A1F9B00200021FEF70AFE012386
:1030A0000B938023229C229ADB001E901F911C40D0
:1030B0001A4200D052E700225C4B06920793062387
:1030C0009A4663E706AA94461723280063440A2118
:1030D00001341E191F00FEF789FB303128003170C2
:1030E0000A21FEF783FB051E4BD0202CEAD10323D7
:1030F000229A1340012B09D1219B002B06D00B9B58
:10310000002B00D19EE0219B013B2193229B019447
:103110000393219B02935346B0E7229B0393219B89
:10312000029304230193424BA8E72800FEF758FEC0
:1031300002000B001E981F99FEF7BBFD384B0022C2
:1031400006000F00FEF728FE0CAB9A460028CCD1F3
:10315000002230003900324BFEF72CFE0028C4D18B
:10316000EB07C2D50135C0E70022089809992C4B1E
:10317000FEF712FE002800D03BE7002E43D10136B7
:1031800037E70323229A1340012B00D181E0202C42
:10319000BCD00B9B002B26D02D2352461355013457
:1031A000B4E7AA46069D202C00D143E7534651467A
:1031B0001A193023002906D001343B55202C00D1A8
:1031C00038E79442F8D10CAB9A462E235246135559
:1031D00001348AE70022104B8A4620240692079386
:1031E000D4E6202C92D0229B5B0704D52B23524699
:1031F000135501348AE7229B1B0787D520235246AB
:103200001355013482E7F30700D4F2E60136F0E605
:10321000FFFFEFFFFFFFEF7F65CDCD4165CDCDC156
:103220000000E03F1C6D0010146D001080842E41E2
:10323000246D0010229B0393219B0293032301938F
:103240001C4B1BE70C23229A134214D0219B013BF9
:103250002193A342C5D906AB17279C466744302368
:10326000202C00D152E7219A01343B5594428ED252
:10327000202CF8D14AE7219BA342ECD846E70E4B1D
:10328000EA009B185C681B68AA4606930794002412
:103290007CE6219B002B00D179E70B9B002BD1D042
:1032A000219B013B2193A342D9D8202C00D073E766
:1032B0002CE7C046206D001038700010F0B5DE46D7
:1032C00057464E464546E0B5A5B01E002E9B924699
:1032D0000C93CE4ACE4B80468B461A60002900D113
:1032E0001DE2002330789946002800D11FE2C94B27
:1032F0004C460B93C84B454657460E930AE0631C59
:10330000984622003B005946A8474446307800289A
:1033100000D187E001362528F1D108239A46043BE5
:103320009946023B9846013B00229C460D9430781A
:10333000711C0300203BDBB2102B03D80B9C9B00BD
:10334000E3589F460300303B89460D9C092B3AD930
:10335000002398462A2800D1DDE000239A462E2833
:103360004BD00300683BDBB2122B1ED80E999B009A
:10337000CB589F4663460E001A43D8E743460E00DB
:103380001A43D4E74B460E001A43D0E710230E0031
:103390001A43CCE753460E001A43C8E780235B006C
:1033A0001A43FF3B9C467078E1444E4667284FD84D
:1033B0002428A4D90300253BDBB2422B9FD8974990
:1033C0009B00CB589F46002394461E0000E001312D
:1033D000B3009B195B001E180878303E0300303B99
:1033E000092BF4D90123624689469C460023B04646
:1033F0009A460E00E1442E28B3D130218020494264
:103400008C46C000024370784B46844461460929CB
:1034100000D89EE12A2800D1ACE101239C464E460B
:10342000E1449EE7A146A846BA46CA4503D801230F
:103430005B425344994653464A4659460020C0478A
:10344000200025B0F0BCBB46B246A946A046F0BD60
:103450000300693BDBB20D930F2B00D94FE701212D
:1034600099408C466E49894661464B4619400F91FA
:10347000634649460B4200D05BE10D9B0A2B56D0B8
:10348000072B00D03BE70C9B190008C98846002B8E
:1034900000D083E110231000984311331843814674
:1034A00080201300C000034002421CD114A98C46A6
:1034B0001F220F2162440D958C4615000F990C9424
:1034C00002E020290CD0130064461C402000373055
:1034D000092C00D80738013168541A090F2BF0D88D
:1034E0000C9C0D9D0F914B46069308230593534664
:1034F000049310230393002302930F9B2200019354
:103500001CAB009359463B002800FFF781F8434667
:1035100004000C93FAE60C9B02CB884600295FDB83
:103520000C9301239C4670784E46E14415E70C9BB2
:1035300002CB1493534608780C90002B00D127E15E
:10354000013B002801D100F070FC01339C468C4403
:103550000B0089460C986146944601E08B4203D0EB
:103560005A780133002AF9D1494662465B1A0C9019
:103570000D93530500D476E10D9B534501D9534675
:103580000D930223180010400F90134200D1B2E2B5
:103590000F93D1460B1B9A463300A1442E00220004
:1035A0004D460C98B9465F469B4609E04B463900AC
:1035B000541CB0475346185D002800D179E1220021
:1035C0009542F3D15B46BB464F46A94635004C4673
:1035D0001E000F9B002B00D094E1149B0C9395E6EA
:1035E0000C9301239C462838494202438846707850
:1035F0004E46E144B1E670786C2800D152E1802358
:103600005B001A43FF3B9C46E144CEE6BD3200100E
:10361000B82000209C6E0010E06E00102C6F00108F
:103620004190000080239B001A4301239C46707840
:10363000E144BAE67078682800D12DE180231A436E
:103640007F3B9C46E144B0E6672800D1AAE04728CA
:1036500000D102E1452800D102E10492072142464F
:103660000C9B0392073352468B43190002920CC9FC
:103670002800009201930C9122003B005946FFF76D
:103680003DF9040042E6462800D18FE0049207216C
:1036900042460C9B0392073352468B431900029219
:1036A0000CC92800009201930C9122003B0059465E
:1036B000FFF706FC040029E6631C984622003B0045
:1036C00059462520A847444620E60C9B04330D9319
:1036D000631C9946920700D4F0E00C9B22001878F6
:1036E00059463B00A84743464444012B00D853E2C7
:1036F0003300B8462E005F4625004C46994622000E
:103700004346013439002020B047AC42F7D12C00A9
:10371000BB46350047464E460D9B0C93F6E5DA4B0B
:103720003078984600239946002800D0DFE5002431
:103730007BE66F283DD000D8D5E21023782800D151
:1037400085E09A430A239C4600230F930A330D9386
:1037500035E05646B1008919490001330E18187832
:10376000303E010030390929F4D9B2461E00013338
:103770009946F6E50C9B023602CB8A46C943504671
:10378000C917084082460C933078731C9946E8E5C7
:10379000002800D149E302235B42D6E62120024300
:1037A000914683E680231B011A4356E720231A43E0
:1037B0006CE708239C4600230F9308330D93802366
:1037C0001100DB0019401A4200D12DE10D239A436C
:1037D0001000802302009B001A401492184200D06F
:1037E000DCE1802302005B001A4091460C9A04320F
:1037F0000F92184200D0C7E2430600D5B1E103069C
:1038000000D41FE30C9B1B880993002B00D015E20A
:1038100010339843002900D110E200239946434613
:103820000593534604930D9B069003930023ECE00D
:10383000582809D0622800D080E002239C4600234B
:103840000F9302330D93BAE720231A43103B9C4693
:1038500000230F9310330D93B1E780231B011A430C
:1038600020231A43F9E60223180010400F90134258
:1038700000D131E20F930B1BB1469A465E460C987D
:1038800022003B003100A84753460134185D002850
:10389000F6D1B3464E469CE6C0231A43F31C994624
:1038A000B07882E5C0239B001A43F31C9946B07898
:1038B0007BE535005E46BB464F468AE64346012B14
:1038C00000D863E1631E43449A463300B9462E0094
:1038D0005F4655469B46A24622004B4601343900BE
:1038E0002020B047AC42F7D135005E46BB464F467C
:1038F000A14654460C9B4A46187859463B0044441E
:10390000A84709E7A1460D9B984500D865E64444C1
:10391000E41A3300B8462E005F4625004C4699460F
:1039200022004346013439002020B047AC42F7D191
:103930002C00BB46350047464E464EE6802310001D
:10394000DB0018401A4200D107E1112118008A4318
:103950000D920D9A802311009B0019408C461A424B
:1039600066D1802311005B00194089460C9904310F
:103970000F911A4200D0C9E113005B0600D5E8E0C0
:1039800013001B0600D44AE20C9B00229B5ED91751
:103990005A184A4092B2D90F0C91002B00D1B1E1D4
:1039A000100014AA944642461F23159252466344BF
:1039B000A84614944D460400B946B2461F0016921C
:1039C00001E0202D0FD020000A21FDF737FF01353F
:1039D0007E193031317020000A21FDF72FFF2600BB
:1039E0000400092EEDD8159B4F46A946454698463A
:1039F000169B56469A46149C0D9B06934346059388
:103A0000534604930A2303930C9B02934B46019362
:103A10001CAB2200009359463B002800FEF7F8FD3E
:103A20000F9B04000C9371E40C239A431000D0E622
:103A300007220C9B07339343013294469C44624611
:103A40000C920CCBD90F0F911100194300D08CE0D0
:103A500000239946002837D10022002310921193A9
:103A600014AA0023944642469946159252461F33A3
:103A70006344A846B24614944E46109C119DB94624
:103A800016921F0004E0C04661250010202E10D0C1
:103A9000200029000A220023FDF70EFF01363032F4
:103AA0002B00BA550D0022000400002BEED1092A8C
:103AB000ECD8159B1094119545469846169B4F4699
:103AC000B14656469A46149C0D9B06934346059371
:103AD000534604930A2303930F9B02934B4601938F
:103AE0001CAB2200009359463B002800FEF790FDD6
:103AF0000400FFF70BFC0D9B984500D8B6E180232E
:103B0000DB000F9343460D9A1B199B1A994633000D
:103B10002E004D46B9465F469B460C9122004B460F
:103B2000013439002020B047AC42F7D143460C990C
:103B300001330D930B7835000C935E46BB464F4620
:103B4000002B00D149E50F9B002B00D193E6002309
:103B50001EE50C9B1B781A001DE710239A430D925B
:103B6000F7E60C9B1B7809934FE6D9171391129136
:103B70005140109113995940119110981199129A2E
:103B8000139B801A99411090119169E70C9B2200B8
:103B9000187859463B00A8474C46BDE50C9AFA3BBD
:103BA000FF3B07329A430133994691444B460C93AD
:103BB0001368526815921A4305D1103290430022BF
:103BC000099200297DD16122810600D54122D2B21D
:103BD0000A9214AA91460A9A00210A3A149242467D
:103BE0001892524619925A460991B3461F311E0047
:103BF0000F9B4944BA4616941A9500246746984686
:103C00008946159D17901B920AE03032D2B24B467E
:103C100001341A55A84546D0202C46D006000D0088
:103C20003A00002330002900FDF746FED2B2092AEF
:103C3000EBD9149B9C466244D2B2E8E7612382062A
:103C400000D54123DBB214A90A3B1F228C460C93FA
:103C500043466244A846149417974C461700B14651
:103C6000099D0D9E1590169308E03033DBB20134A8
:103C70003B55B5420ED3202C0CD005003100280056
:103C8000FDF7DCFDCBB20929EFD90C9A94466344C9
:103C9000DBB2ECE7169B45464E469846A146159882
:103CA000179F149CBBE5B742B6D9189B5746984658
:103CB000199B5E469A461B9B09949B461798169C37
:103CC0001A9D43460593534604930D9B0690039318
:103CD00000230293099B02E70D9B984500D911E749
:103CE00001330D93C7E51023110099430D91692805
:103CF00000D0B9E080231000DB0018401A4200D148
:103D000027E622E6002800D076E64AE60C9B1B68F0
:103D1000DA0F1100002B7FD0DA179818504014AA40
:103D200091461F2342464B44A8461494169704001C
:103D30006546B1461F000C91159201E0202D0FD071
:103D400020000A21FDF77AFD01357E1930313170EE
:103D500020000A21FDF772FD26000400092EEDD88F
:103D6000159BAC46454698460C9B4E461900149C44
:103D7000169F0D9B02910693434605935346049369
:103D80000A230393634642E60C9B1B689946002B6B
:103D900003D110339843002933D16123820600D523
:103DA0004123DBB214A90A3B1F228C460C934346E5
:103DB0006244A84615944D461897B1461700149CC6
:103DC0000D9E1690179308E03033DBB201343B555B
:103DD000B5420ED3202C0CD0050031002800FDF791
:103DE0002DFDCBB20929EFD90C9A94466344DBB27E
:103DF000ECE7179B45464E46984614941698159C3A
:103E0000189F43460593534604930D9B06900393D6
:103E100000230293149BFAE50028AAD17FE70C9BAC
:103E20001B68D9175A184A40B5E580231000DB00FB
:103E300018400D901A4209D092071BD50023A146C5
:103E40000D9360E50C9B1B680993DEE402231800C8
:103E50001040A1460F90134200D054E54346002B7A
:103E600000D04FE6FFF7B9FB0A006BE401330D9376
:103E7000FFF78FFB4346002B01D1FFF7AEFB00237A
:103E80000D938023DB000F933CE6C04600B585B060
:103E90000391012102900093034813004A4202A9B2
:103EA000FFF70CFA05B000BDED28001010B5094A67
:103EB0000300146884B0002C08D001220091064849
:103EC000524203A9A047012004B010BD00F098F9A8
:103ED0000020F9E7B8200020DD28001000BEFDE733
:103EE00010B5FFF7FBFFC04670B5FDF75BFB074D54
:103EF000074EB54209D20024013E761BB60808CD14
:103F0000984723000134B342F9D170BD346C0010DE
:103F10003C6C0010030010B5080011001B689847A6
:103F200010BDC046F0B5C64600B5437D07000D0084
:103F30001600002B43D0002A1EDD0B78027D0A2BD1
:103F400035D001240020A64209D06B1E1A5D631CE7
:103F500098462B5D0A2B12D04446A642F5D18642E4
:103F600003DD311A3B6828189847AD19013D2B78BD
:103F70000D3B5A4253413B7580BCB846F0BD0D2AFB
:103F8000EAD0844203DD211A3B682818984744464A
:103F90000D4802213B6898472000A642D5D1AD19B3
:103FA000013D2B780D3B5A4253413B75E4E7012418
:103FB000002AEDD00123984600204446CDE703684F
:103FC000110028009847D7E788700010F0B5C64662
:103FD0000B6806000C0000B5802B06D05A1C22602E
:103FE000E418267180BCB846F0BD0F4B1D68002D4B
:103FF00016D00B1D98460D4F02E02D69002D0FD0F5
:104000002B68002BF9D03B68002B01D0AB42F4D1D8
:10401000280041462268FFF785FF2D69002DEFD16A
:1040200001220023DBE7C046AC1C0020B41C0020AA
:10403000F0B5DE4657464E464546E0B585B017001A
:104040001C0006000D00FDF795F80023314A1218F8
:104050004B41802109068B4202D301222E4B524252
:104060002E4908008A4602F0AFFD01906B1C03D177
:10407000300002F047FD0500002C26D0284B984662
:10408000284B1C68002C15D0002F21D1264F02E0B0
:104090002469002C0ED02368002BF9D03B68002B3C
:1040A00001D09C42F4D120002A003100C04724698D
:1040B000002CF0D1019B002B28D1280005B0F0BCCA
:1040C000BB46B246A946A046F0BD184B9846D7E776
:1040D000154B994602ABDF1D0A239B4602E024697B
:1040E000002CE7D02368002BF9D04B461B68002B2F
:1040F00001D0A342F3D12A0031002000C0475B4623
:104100000122390020003B70C047E8E7504602F02A
:104110001BFDD2E740420F00FFFFFF7F0812002087
:10412000253F0010AC1C0020B41C0020153F0010DF
:104130000A4A1368002B05D10CE01A001B691032E3
:10414000002B07D09842F8D1002902D103691360EF
:10415000016170470029FCD01060FAE7AC1C002018
:1041600010B500F003FB10BDF0B5CE46474680B554
:1041700083B06B460600DD1D2870FCF7FBFF0023B3
:104180001A4A12184B41802109068B4202D30122A0
:10419000174B524217490800884602F015FD164B8E
:1041A00081461C68002C14D0144F02E02469002CB6
:1041B0000FD02368002BF9D03B68002B01D09C4224
:1041C000F4D1200001222900FFF7ACFE2469002C65
:1041D000EFD14B46002B05D1300003B0C0BCB9462F
:1041E000B046F0BD404602F0AFFCF5E740420F009C
:1041F000FFFFFF7F08120020AC1C0020B41C002031
:1042000070B5040002F07EFC0123010005000122CC
:104210002000FFF70DFF084B1C68002C06D06368D8
:10422000002B05D098472469002CF8D1280070BDD8
:104230002469002CF3D1F9E7AC1C0020F0B5CE4680
:10424000474680B5A3B004000D00FCF793FF0023A0
:10425000294A12184B41802109068B4202D30122C0
:10426000264B5242264F380002F0AEFC00230600D7
:10427000019322002B00234801A9FFF707FE019BB1
:104280008046002B14D1204B1C68002C06D063689C
:10429000002B0BD098472469002CF8D1002E25D193
:1042A000404623B0C0BCB946B046F0BD2469ECE737
:1042B000154B1D689946002D1CD0144C02E02D6949
:1042C000002D0FD02B68002BF9D02368002B01D0D4
:1042D000AB42F4D12800019A02A9FFF723FE2D6911
:1042E000002DEFD14B4601951C68CEE7380002F057
:1042F0002BFCD5E70195D1E740420F00FFFFFF7F80
:1043000008120020CD3F0010AC1C0020B41C00207F
:104310000FB400B583B004A901C90191FFF78EFF66
:1043200003B008BC04B018477047C0460022014BD8
:104330001A7070470A2100204B790020FF2B0BD107
:104340008B79002B08D1CB79012B05D1082A03D911
:10435000024B8A7809301A707047C0460A21002043
:104360000120704710B5012901D0012010BD13496B
:104370005379107909781B02034300209942F5D143
:104380005378012B08D0022BF0D1002064220021A9
:10439000FDF750F80120E9E7D37891781B02194323
:1043A000DB0507D54A0A100001231A407E33194065
:1043B000FDF7C8F801204A0A4042F5E70A2100202B
:1043C000004870475471001070B5050014000120BA
:1043D000012909D153780020012B05D16379127985
:1043E0001B021343072B00D070BD21002800024A96
:1043F0009F3301F05FFAF7E7AC7000100123037000
:10440000004870478C7000104B780A781B021343E9
:104410008A7810B512041A43CB781B0613439622F0
:10442000D200934200D010BD002201201100404272
:10443000FDF788F8024B1860024B19607047C046C0
:104440004C1C0020501C002010B5024B1878FCF7C3
:1044500077F810BD0B210020154B70B51A68002AA3
:1044600022D0EFF3108172B610680028FCD0BFF3A1
:104470005F8F00200F4A596010701B68BFF35F8F79
:10448000186081F31088002400250B4E3078FCF76B
:104490004BF8002804D1002400252900200070BD1D
:1044A0003078FCF74DF8F8E7FA240025A400ECE793
:1044B000C42000200C2100200B21002070B5040036
:1044C00000200E0001F016FB002836D0002001F07D
:1044D00027FB002831D0FCF74DFE0023184A1218A4
:1044E0004B41802109068B4216D2164D280002F05E
:1044F0006BFB002821D0002001F0FCFA00280FD12E
:1045000001200021404200F009FD032464422800FC
:1045100002F01AFB200070BD01220B4B5242E4E76F
:10452000002001F0FDFA0028EAD02100320000202E
:1045300001F000FB041EEAD1E7E703246442E9E747
:1045400040420F00EC200020FFFFFF7F10B5FCF77A
:1045500011FE00230E4A12184B41802109068B429E
:1045600002D301220B4B52420B4C200002F02CFBD9
:1045700000280CD001200021404200F0CFFC002098
:1045800001F01EFB0028F5D1200002F0DDFA10BD7D
:1045900040420F00FFFFFF7FEC200020F8B5DE4611
:1045A000574680B505000C00FCF7E4FD0023374AB0
:1045B00012184B41802109068B4202D30122344B51
:1045C0005242344908008A4602F0FEFA002803D11C
:1045D000C0BCBB46B246F8BD002001F08BFA0028F3
:1045E0004AD00026002C43DD2B4B9B4614E0A91932
:1045F000002001F01FFB070001200021404200F0D5
:104600008DFC002001F0DCFAFCF7B4FD224BF6191A
:1046100018605960B4422BDD002001F02BFBA71B72
:104620000200B84200DD3A00002AE0D1012000215A
:10463000404200F073FC002001F0C2FA002001F0BB
:1046400059FA002814D0002001F014FB0028E1D111
:10465000FCF790FD5B460F001A685B6800218446FA
:104660000E4812184B419F4202D8D3D19445D1D95C
:10467000504602F069FAABE700200021064B1860B3
:104680005960504602F060FAA2E7C04640420F006F
:10469000FFFFFF7FEC2000209013002020A10700E7
:1046A00030B52B4C85B00021200002F075FA0028AF
:1046B0001CD1284B1A68002A16D0EFF3108172B66D
:1046C00010680028FCD0BFF35F8F01242248596096
:1046D00002781B68D2B20470BFF35F8F00201860AD
:1046E00081F31088002A17D005B030BD01200021C9
:1046F000404200F013FC002001F012FA05002000F7
:1047000002F022FA002DEFD0144B1B68002BEBD0E7
:10471000134A10689847E7E7FCF71AFB0400FCF718
:1047200029FDFA220023920012184B41802109062C
:104730008B4202D301220B4B5242012102910021F4
:104740000191094920000091FCF706FBCCE7C04627
:10475000EC200020C42000200C2100204C1C002054
:10476000501C0020FFFFFF7F59440010D02310B5DC
:104770001B0684B01C68FCF7EBFAFCF7E9FBA042CF
:1047800002D0002004B010BD2A4B002100201B786D
:1047900001F06CFD28480368002B47D00120FCF78E
:1047A00067F8FF23254C264920701840FBF7E2FEEE
:1047B00020780121FBF7A6FE0520FBF7C9FE0028A3
:1047C00026D1082200211F48FDF7BEFEFCF7C0FAE3
:1047D0000400FCF7CFFCFA220023920012184B4190
:1047E000802109068B4202D30122174B524201213C
:1047F000029100210191154920000091FCF7ACFACB
:104800000028BEDB12480121FFF792FC0120B9E726
:104810000120FBF745FE0B4B01001800FCF78AF85E
:10482000002205200B49FBF7CFFEEBE7FCF766F80B
:10483000B4E7C04608730010EC2000200B210020D4
:10484000A1460010C4200020FFFFFF7F5944001044
:10485000D01100204944001000487047F07100104A
:10486000004870479C71001010B504001748037889
:10487000002B20D0002C06D1154B16484380063B58
:10488000FF3B038010BD052C19D8134BA400E05842
:1048900012490123013804E001330A800231142B4C
:1048A0000FD0C25C002AF7D1C022DBB25B009200BD
:1048B00008481343E5E7112100F01AF8DAE7002071
:1048C000E0E7CA2303489B00DBE7C046F420002052
:1048D00009040000841C002084710010861C002044
:1048E00010B5024800F0D8F810BDC046DC2000200A
:1048F00030B54B1E012900D1A7E0664A11780D0999
:104900002C0030349F2900D9A2E00470012B00D183
:10491000BEE00F21147821400C003034092900D961
:1049200098E04470022B00D1B2E0547825092900A8
:1049300030319F2C00D990E08170032B00D1A7E08B
:104940000F2121400C003034092900D987E0C470C0
:10495000042B00D19CE094782509290030319F2C4C
:1049600000D97FE00171052B00D191E00F2121409A
:104970000C003034092900D976E04471062B00D1AF
:1049800086E0D4782509290030319F2C00D96EE0CB
:104990008171072B00D17BE00F2121400C003034C6
:1049A000092966D8C471082B00D171E01479250952
:1049B000290030319F2C5FD80172092B68D00F215C
:1049C00021400C003034092958D844720A2B5FD09A
:1049D00054792509290030319F2C52D881720B2B34
:1049E00056D00F2121400C00303409294BD8C47215
:1049F0000C2B4DD094792509290030319F2C00D9FA
:104A0000073101730D2B43D00F2121400C003034AE
:104A1000092901D937310C0044730E2B38D0D179D4
:104A20000C09220030329F2900D9073282730F2BE4
:104A30002ED00F220A4011003731092A01D8303216
:104A40001100C173102B23D010300023037030BD30
:104A500007345AE737310C0063E707316CE7373129
:104A60000C0074E707317DE737310C0085E707312B
:104A70008EE737310C0095E707319DE737310C00A1
:104A8000A3E70731AAE737310C00C4720C2BB1D170
:104A9000C018DAE7DC20002010B588B004000D2231
:104AA00000216846FDF750FD0D22002104A8FDF706
:104AB0004BFD4B236A466846137004A90D2202F091
:104AC0003BF81521082220006944FDF743FD08B09A
:104AD00010BDC046F8B500F043F90C23194DFF2274
:104AE000AB6705201849FBF76FFD184C40220021E9
:104AF0002000FDF729FD4027002301262121144A2B
:104B000066702783A260136063545F316184453906
:104B10006354104A10496360E2602787A1620B600A
:104B20006362E26201F0F8FF80239B052E64EB6470
:104B300090230A4A0120EA508022094B5202DA648B
:104B4000F8BDC0460000115075060020B81C0020BA
:104B500084001050000110508000105010D001004F
:104B60000020115010B501210520FBF7CBFC10BD32
:104B700010B500220021024800F012F910BDC04615
:104B8000D81C0020044B1970002904D080219023E8
:104B9000024A8902D150704706210020002011509E
:104BA0000B785B0602D14B78052B00D070478A78D2
:104BB000014B1A60FAE7C04600001150F0B5C64636
:104BC000C87800B58007830F1800012B60D08F785C
:104BD0000A794B797F213940FC091B024E001343AF
:104BE000334D32195201AA18977001276740577048
:104BF00000275B055B0DD7701383D076B846CA00DB
:104C0000012C32D02B4FBC468F016244BC46AC44D1
:104C10006746BA6047461760002932D0264AC90065
:104C200090466246414451603F223F3393430228FD
:104C300037D0224937190A687F01D3180B60204901
:104C4000EF19FA608B422ED836197601AD19EB7E3A
:104C50001C499B064A4013438022120613436A688C
:104C60001360012080BCB846F0BD174FBC468F01D1
:104C70006244BC46AC446746BA62474617600029A6
:104C800008D1002364012C196360104BE360E8E74E
:104C90000020E7E70B4AC900904662464144516252
:104CA000C2E75B00C5E7FCF777FCFA68CCE7C046D3
:104CB000B81C00208400105004001050C0200020B8
:104CC000FF0F1050000010508000105000011050D5
:104CD00010B501F021FF10BD10B57F200C00204061
:104CE0004000E409110000191A00034B4001C018EC
:104CF00000F056F8012010BDB81C00207F231800DA
:104D000010B50840CA090B4203D107497D3B9B1AE5
:104D10008B66400080188022044B40010021C0189F
:104D2000120101F061FF10BD00201150B81C0020DD
:104D30007F22130010B50B400A4200D110BDC909F3
:104D40005B005B1804485B01C01800230022034984
:104D5000C37001F049FFF1E7B81C0020FFF7FFFF27
:104D600080220A4B520410B51A60094B09491A6097
:104D700010000B689843FBD18022002152010648A5
:104D8000FDF7E2FB0922054B5A6710BD00E0004029
:104D900000F0004008C0004000001050000011501A
:104DA000002310B5C382013382828376016104003F
:104DB00001F0EAFE002804D080219023074A8902EE
:104DC000D150200001F0B0FE002802D0012323774B
:104DD00010BD200001F000FFFAE7C046002011508E
:104DE0007047C0467047C04600207047002070479B
:104DF0007047C0467047C0467047C0467047C046BF
:104E0000024B5878431E9841C0B270476417002087
:104E1000024B18784007C00F7047C0466417002047
:104E2000F0B5D6464F464646C0B5314B07009A46C8
:104E30001B780E00FF2B01D0012044E0002941D057
:104E4000002154222B48FDF77FFB00222A4C2B4BDC
:104E500020001A70FBF752FD294B1C60294C2000E2
:104E6000143CFBF759FD200001F008FE264B274DAE
:104E70001C60274B002B2BD02800FFF7BFFA254BD7
:104E80002A7818602449002489462249002388464C
:104E900010E043461B6862019B18002B12D05B6830
:104EA000002B0FD098472A780134E4B2511C23001C
:104EB000A1420FDBA242ECD89B1A5B014B445B681A
:104EC000002BEFD10020E0BCBA46B146A846F0BDA9
:104ED0002A78D7E75346310038001F70FFF7FAFDF4
:104EE0000028EFD03800FFF73DFE0120EBE7C04679
:104EF00004120020641700205C1700200721002006
:104F0000B8170020FC110020BC170020052100204C
:104F1000FD430010B4150020AC720010F0B5DE4661
:104F200057464E464546E0B5C84B91B002931B78B4
:104F3000FF2B00D13EE1C64BC64E9B465F46C64B9B
:104F40000DAC0193C54B009335686A69EFF310818E
:104F500072B61368002BFCD0BFF35F8FA9612800E5
:104F6000210001F0B9FB6A69AB69BFF35F8F0021D3
:104F7000116083F31088002800D11BE16378082BAF
:104F8000E2D89B00FB589F466368002BDCD0A068EA
:104F90009847D9E77F222179AF4D0A405300EB189B
:104FA0009846C809804440460123303005799D4326
:104FB0000571057903339D430571002A00D100E195
:104FC0004346A74A1B7D1278934200D3EFE0A54ADF
:104FD0005B011568ED18002D00D1EBE0A368627944
:104FE0002078AD69A847AFE79F4A1378002B00D11E
:104FF000E0E01378013BDBB213701378002BA3D1F0
:105000000122954D01212B78042013432B7034236A
:10501000EA5C8A43EA54EA5C8243EA540133EA5C7C
:105020008A43EA54EA5C8243EA54237800209B4690
:1050300000F0A0FC602223791A40602A00D1EFE042
:10504000402A00D1F5E0DB06DB0E012B00D113E195
:10505000022B00D1C7E0002B00D0E1E0202A00D1D4
:105060001CE2002A00D0DBE06379092B00D9D7E0ED
:105070007E4A9B00D3589F46774D2B78DB0700D4A0
:1050800062E7FFF7BBFE5FE7019BDB78DB0700D43D
:105090005AE76068FFF7A6FE56E76F4D2B78DB07EF
:1050A00000D451E728780007C00FFFF7A5FE4BE7B3
:1050B00023786A4999468B46694B6A4998468A46DD
:1050C00039001A7847460023B04600254E468946E7
:1050D00010E053461B686A019B18002B00D176E054
:1050E000DB68300098473A780135EDB2511C2B004F
:1050F0008D4244DC9542ECD39B1A5B015B44EFE7A5
:10510000237858499946564B8A4698463100BB4603
:105110004E461A7800250023474689460FE053463D
:105120001B686A019B18002B55D0DB68300098473C
:105130003A780135EDB2511C2B008D4207DC9542C7
:10514000EDD39B1A009A5B0194466344EDE7019D01
:10515000542200212800FDF7F7F91022FF214448CE
:10516000FDF7F2F928002022FF2114304E465F4659
:10517000FDF7EAF900F0F4FBFFF73CFEE4E6364DFC
:10518000542200212800FDF7DFF91022FF21281DFD
:10519000FDF7DAF928002022FF21143046464F4659
:1051A000FDF7D2F900F0DCFB2379AB70CCE6501CA4
:1051B000984213DA11B0F0BCBB46B246A946A046ED
:1051C000F0BDA3686279207800F0E8FBBCE64646B3
:1051D0004F46214DE6E74E465F46CBE71F4D9B1AF3
:1051E0005B015D19FAE67023217A0B4218D1C809D8
:1051F00082460F330B405B0098461948EB18534426
:105200001B7D00789946834266D216485B01006890
:1052100081469944002A00D15FE14B46002B68D1BA
:1052200020780021FFF76AFD80212078FFF766FDD6
:105230008AE6104800F09EFB012158460EAAFFF7AF
:10524000C3F8002800D07FE6EAE7C0460412002039
:1052500004720010BC17002064170020AC7200100C
:1052600005210020B415002007210020287200101D
:1052700068170020C9430010237A0F2BD0D8CF4ADB
:10528000EB181B791578AB423ED3691C9942C7DBFA
:105290005D1BCB4B6D01ED18686900F06BFB0121C4
:1052A00058466B690EAA9847002800D04CE6602249
:1052B000150023791D401A42B2D163790A3B012BB4
:1052C000AED800F057FB63790A2B00D199E158461C
:1052D0000EA900F0D9FA37E6431C4B4500DAF7E097
:1052E0004B461B1A5B019946B5488144002A00D100
:1052F000F3E04B46586900F03DFB4B460121584610
:105300005B690EAA98479CE7AE4A5B011568ED18E9
:10531000002DC1D184E7A37999466B789945D6D001
:105320006B78002B00D033E14B466B70002B00D123
:105330002BE148460138C0B2FFF792FA002800D1AD
:105340007EE143780793022B00D079E10122C179F5
:10535000B1468B11491113400A40302112015B0103
:1053600013432A78A8468A4313432B7009239A468D
:1053700082445646BA46C37882781B021343C31848
:1053800005938E4B04938E4B08938E4B09938E4B53
:105390000A93059BB34200D855E1737801220B2B89
:1053A00003D13378F278F6187378042B00D044E1F7
:1053B000059B00279B1B9BB20693049B0B921D78B9
:1053C000002303931BE0099A7B011568ED18002D5B
:1053D00000D132E1310058462B69069A984784463D
:1053E000082803D9069A824200D313E1049B0137AF
:1053F0001D78FFB26B1C03979F4200DD1DE1BD428B
:10540000E1D8039B5D1B089B6D019C466544E1E769
:105410006B780CAA02321370584601230EA900F0D3
:1054200049FA91E5E3881A0AD8B20F2A00D9F7E6BB
:1054300066499300CB589F460EA800F0A1FA584643
:10544000A179FFF795FB02222B7813432B707BE5A4
:10545000E388012B00D0E3E608222B7858469343DB
:105460000EA92B7000F010FA6EE5022029780CAB23
:105470009A1C8B068908DB0F01400B4313805846AA
:1054800002230EA900F016FA5EE5E388012B00D096
:10549000C6E608222B7813432B7018E7237A0F2BCC
:1054A00000D9BDE6EB181D79444B1B789D4228D2EC
:1054B000444B6D011B685D19002D00D1B0E6686991
:1054C00000F058FA012158466B690EAA9847B8E6D1
:1054D000002A00D0A4E60023994662790220130036
:1054E00003928343012B15D0002A00D098E62B00AD
:1054F0004344534430331B790CAA9B07DB0F023221
:10550000BCE75A1CAA4200DA8AE6ED1A2C4B6D0160
:10551000ED18D4E7E388002B12D1029B1878039B87
:10552000012B23D0FFF7EAFB43460221EB1853443B
:1055300030331A790A4301211A711A790A431A7110
:105540004B46002B00D1FFE4586900F013FA4B469C
:1055500001215B690EAA58469847002000F00AFA1C
:105560003523EB5CDB0700D5EEE4B0E6FFF7E0FBAC
:1055700043460221EB18534430331A798A431A7197
:105580001A7903998A431A71DAE7FFF733FC9EE62A
:1055900000215846FFF7F6FA5846FFF799FBAB781B
:1055A000074903930491054B064998461A780591DB
:1055B000002329001D008A461BE0C046052100206B
:1055C000AC720010B4150020781700205072001043
:1055D000059B6A011B689B18002B4DD0DB68584661
:1055E000984743461A780135EDB2511C2B008D4285
:1055F0002EDC9542ECD39B1A049A5B0194466344DB
:10560000ECE70CAB9A1C584601230EA9157000F06C
:1056100051F999E40B9A012A4FD0002A3CD000237B
:10562000B07804E00133DBB20F71934234D2C11879
:10563000C9B241440D79FF2DF4D04E464546574638
:1056400000236B70ECE54E465746FFF7D1FB3EE674
:105650005546542200212800FCF776FF1022FF2136
:10566000281DFCF771FF28002022FF211430FCF7D1
:105670006BFF039BAB7057E65546FAE7FEF7A0FEBB
:10568000021E00D1CCE5D37891781B020B4358461B
:105690000EA900F00FF9D4E565463B002A00310061
:1056A0000A9800F089FEAC46049B039A1B78664476
:1056B0000133934200DB6CE6BFE7174B296999423F
:1056C000ADD1079AABE7FFF78FFB021E00D1A7E52C
:1056D000584613780EA900F0EDF8B2E52189FFF7DE
:1056E000C3F8021EF4D19BE5022A0FD0FFF77EFB20
:1056F000021EC8D194E5FFF7AFF8021E00D18FE576
:10570000122358460EA900F0D5F89AE5FFF7A8F83D
:10571000021EB8D184E5C046795D0010F8B5574641
:105720004E46DE4645460C00E0B516001F00002A36
:105730003CD01F4B00259A46702399461D4B9B4633
:1057400017E05B462000997800F0F8FD00281FD094
:1057500021004046FFF732FA002819D0A378DA0971
:10576000012A1CD00A9A013513702378E418B54237
:105770001CDA6378052B0BD1E3789B079B0FBB42A8
:1057800006D153464A461B789846A3781A42D8D089
:105790000020F0BCBB46B246A946A046F8BD0B9A15
:1057A000013513702378E418B542E2DB0120F0E7FD
:1057B0000412002064170020702270B5094B0C0001
:1057C0001D788B781A4201D0002070BD064B200056
:1057D000997800F0B3FD0028F6D021002800FFF7EB
:1057E000EDF9F2E704120020641700200B007F207F
:1057F00010B51840DB0934334000044AC018044B8C
:105800001168C01800F056FD10BDC046B817002042
:10581000641700200B007F2010B51840DB093433DB
:105820004000044AC018044B1168C01800F06AFD1B
:1058300010BDC046B81700206417002070B57F2443
:105840000F480C4064000419CD09641930342079E4
:10585000C00701D5002070BD0126257909483543D0
:1058600000782571FFF738FA0028F4D10122237956
:10587000934323712379033293432371EAE7C046AC
:10588000641700200412002070B5094C060008229D
:1058900020000D00FCF75EFE00238021E360A36082
:1058A0002B783000994300220023FFF7C7FF70BD1B
:1058B00044170020F8B5CE4647469046264E80B5A0
:1058C0008146082230000D001F00FCF743FE4346CE
:1058D000B3600023F381EC79AB7924021C43231CD1
:1058E000BC4200D93B1C9FB2B381002C0ED0002FCC
:1058F00018D04346002B2CD03B1C402F1BD89FB206
:1059000033787F2B1CD80021144A0FE080212B789C
:105910000022994348460023FFF790FFC0BCB946D8
:10592000B046F8BD7F230022317899433B004846BA
:10593000FFF784FFF2E740239FB233787F2BE2D951
:10594000064C3A0041462000FCF704FE802122006C
:10595000ECE70020E2E7C0464417002004170020CF
:1059600010B5142200210248FCF7EEFD10BDC04620
:1059700044170020014B18617047C04644170020AF
:1059800010B5054C010008222000FCF7E3FD0023C0
:10599000A360E36010BDC0464417002070B5384CCA
:1059A0001D0023780600DA09C9098A4210D00020B8
:1059B000002D00D070BD21003000FFF7F1F8236901
:1059C000002B03D022000321300098470120F1E78B
:1059D000A0687F2B05D8002834D02A002949FCF77D
:1059E000B9FDE289A1685219E38892B24919E281AE
:1059F000A160934214D03F2D12D9A389981A051C97
:105A000080B240282AD82078ADB27F2828D800213B
:105A10009A4232D01B4A2B003000FFF70FFFC9E734
:105A20002369002B05D0220002213000984700286E
:105A30000AD0802123780022994330000023FFF709
:105A4000FDFEB7E70020B5E700213000FFF756F96B
:105A500030008021FFF752F90120ABE74025D2E763
:105A60009A4207D0074C2A002000FCF773FD8021E2
:105A70002200D0E780210022CDE70022CBE7C046FC
:105A8000441700200417002070B50400FFF7B8F990
:105A9000002800D170BDFFF7BBF90028FAD1C82358
:105AA0006343124DEE18F1780029F3D010335D19DD
:105AB000280000F0FBFD3F28ECD90020F178FFF72B
:105AC00095FE0028E6D0280000F0F0FD3F2808D918
:105AD000074BE201D218F17840230020FFF7AEFE19
